:020000040800F2
:10000000D804002045010008391300082D0B000812
:1000100005130008C5080008BB190008000000000F
:1000200000000000000000000000000001150008B2
:10003000C908000800000000E9130008ED150008D9
:100040005F0100085F0100085F0100085F01000810
:100050005F0100085F0100085F0100085F01000800
:100060005F0100085F0100085F0100085F010008F0
:100070005F0100085F0100085F0100085F010008E0
:100080005F0100085F0100085F0100085F010008D0
:100090005F0100085F0100085F0100085F010008C0
:1000A0005F0100085F0100085F0100085F010008B0
:1000B0005F0100085F0100085F0100085F010008A0
:1000C0005F0100085F0100085F0100085F01000890
:1000D0005F010008E91600085F0100085F010008E1
:1000E0005F0100085F0100085F0100085F01000870
:1000F0005F0100085F0100085F0100085F01000860
:100100005F0100085F0100085F0100085F0100084F
:100110005F0100085F0100085F0100085F0100083F
:100120005F0100085F0100085F0100085F0100082F
:10013000DFF80CD000F0A4FB0048004709230008BA
:10014000D80400200648804706480047FEE7FEE73F
:10015000FEE7FEE7FEE7FEE7FEE7FEE7FEE7FEE777
:10016000711600083101000880EA010210B502F0A2
:100170000043400022D04A001FD0010E01EB126163
:10018000C0F35600C2F3560240F4000042F40002ED
:10019000A0FB022000047F39140400D0401C50EA68
:1001A000124001D44000491EC2B20C0604EBD0102C
:1001B000401C4008802A02D003E0002010BD20F03F
:1001C0000100002900DA0020184310BD30B480EA95
:1001D000010202F0004530F0004221F0004013D04F
:1001E00090B1C30DD40DC2F31601C0F31600E41A8A
:1001F00041F4000140F400027D34914201D3641CBB
:1002000000E04900002C02DA30BC002070474FF4B7
:1002100000000023914201D3891A034340084FEAAA
:100220004101F7D151B1914202D14FF0004105E0B7
:1002300002D24FF0010101E06FF0010103EBC45065
:10024000284430BC00F000BA2DE9FE4F804681EA18
:100250000300C00F0C46009021F0004123F0004540
:10026000B8EB0200A94105D24046214690461C4603
:100270000B46024623F00040104347D0270DC7F33A
:100280000A00C3F30A510290401A019040286BDA29
:10029000C3F3130040F4801B0098924620B1002362
:1002A000D2EB030A63EB0B0B01985946C0F14002F5
:1002B000504600F0A8F906460D4650465946019AA8
:1002C00000F0B0F910EB08006141002487EA1152F8
:1002D00084EAE7731A4340D0009A62B3019A012A74
:1002E0004FEA075215DC001B61EB02014FF00042A0
:1002F00002EA0752CDE90042001C41F58011324666
:100300002B4600F0E7F903B0BDE8F08F40462146E8
:10031000F9E7001B61EB0201001C41F58013001896
:100320005B412018A2F5001747EB030140EAD570A6
:10033000B6196D4111E06D084FEA360645EAC07501
:100340004FEA0752001B61EB0201001C41F58011CE
:1003500049084FEA30000019514132462B4603B09C
:10036000BDE8F04F00F0A7B900980122400000233B
:10037000D0EB020263EBE073009821464FEAE07491
:10038000B8EB000061EB0401E9E783F000435BE7B1
:1003900081F0004158E72DE9FE4F81EA030404F0A3
:1003A000004421F0004100944FF0000B23F0004383
:1003B00050EA01045ED052EA03045BD0C3F30A544E
:1003C000C1F30A552C44A4F2F3340194A0FB025467
:1003D000C1F3130141F48011C3F3130343F48013F9
:1003E00001FB024400FB034E840A970A44EA81544D
:1003F00047EA8357A4FB076802958D0A05FB07852A
:100400004FEA932C04FB0C542705029D4FEA065833
:1004100047EA1637B5EB08056EEB070C870E920E10
:1004200047EA811742EA8312A7FB0201B6EB0B01F0
:1004300064EB00042B0D43EA0C335E1844EB1C50B4
:10044000DA465146E7FB0201C5F313044FEA0B33CA
:1004500043EA14534FEA0432019C43EA0603A4F131
:100460000C040294009CCDE900B400F033F903B011
:10047000BDE8F08F00200146F9E7962300221146DF
:1004800000F0EBB80EB5C10F80EAE0700844CA076F
:10049000002140F233438DE80E000A460B4600F07F
:1004A00019F903B000BD00F0004230F000400AD05E
:1004B000C10D01F56071C0F3160042EA0151C20896
:1004C00040071143704700200146704730B5041EB5
:1004D00071F1000404DB4FF00044404264EB010181
:1004E000141E73F1000405DB1C464FF0004352421A
:1004F00063EB04038B4208BF824230BD30B5041E5B
:1005000071F1000404DB4FF00044404264EB010150
:10051000141E73F1000405DB1C464FF000435242E9
:1005200063EB0403994208BF904230BD01F00043E1
:1005300030B421F0004150EA010206D00A0DA2F5C4
:100540006072C1F31301002A02DC30BC0020704746
:10055000440F44EAC104C100E01830BC00EBC250B3
:1005600000F072B8002801DBC0F10040002901DB77
:10057000C1F100418142704730B50B460146002071
:100580002022012409E021FA02F59D4205D303FA55
:1005900002F5491B04FA02F52844151EA2F10102D6
:1005A000F1DC30BD2DE9F05F0546002092469B4608
:1005B00088460646814640241BE028464146474679
:1005C000224600F06FF953465A46C01A914110D3A3
:1005D00011461846224600F016F82D1A67EB01085E
:1005E0004F4622460120002100F00DF817EB0009CC
:1005F0004E41201EA4F10104DFDC484631462A4664
:100600004346BDE8F09F202A04DB203A00FA02F1BD
:10061000002070479140C2F1200320FA03F31943F0
:1006200090407047202A06DBCB17203A41FA02F0AF
:1006300043EAE07306E041FA02F3D040C2F120023F
:1006400091400843194670470029A8BF7047401CD5
:10065000490008BF20F00100704710B4B0FA80FCD8
:1006600000FA0CF050EA010404BF10BC704749B115
:10067000CCF1200421FA04F411FA0CF118BF012185
:1006800021430843A3EB0C01CB1D4FEA00614FEA65
:10069000102042BF002010BC704700EBC350104434
:1006A0000029A4BF10BC7047401C490008BF20F0BF
:1006B000010010BC704710B5141E73F1000408DA75
:1006C000401C41F1000192185B411A4301D120F016
:1006D000010010BD2DE9F04D92469B4611B1B1FAD3
:1006E00081F202E0B0FA80F220329046FFF78BFFF1
:1006F00004460F4640EA0A0041EA0B0153465A46B7
:10070000084313D0114653EA010019D0C8F1400242
:10071000504600F0C7F805460E4650465946424638
:10072000FFF771FF084305D0012004E02046394659
:10073000BDE8F08D0020054346EAE0762C433743C0
:100740000A986305E40AA0EB08000022FD0A44EAC7
:1007500047540A3002D500200146E9E70105101987
:100760006941DDE9084500196941BDE8F04DA2E79E
:100770002DE9F04D81EA030404F0004B21F000451F
:1007800014464FF0000A23F0004150EA050220D041
:1007900054EA01021DD0C5F30A570246C5F31303FC
:1007A000C1F31300C1F30A5640F4801543F48013DB
:1007B000A7EB0608101BD64608F2FD3873EB0500C0
:1007C00002D308F1010801E092185B41B8F1000F73
:1007D00003DA00200146BDE8F08D00204FF48011BF
:1007E000064684460EE0171B73EB050705D3121B64
:1007F00063EB050306434CEA010C49084FEA30005D
:1008000092185B4150EA0107EDD152EA030012D081
:1008100082EA040083EA0501084305D0101BAB41BE
:1008200006D20122002306E000224FF0004302E03E
:100830006FF0010253101AEB06004CEB085110EB5D
:100840000A0041EB0B01BDE8F04DFFF734BFC1F3E7
:100850000A52C1F3130140F2FF3341F480119A426E
:1008600002DA00200146704740F233439A42A2F276
:10087000334202DC524200F015B8FFF7C4BE00005C
:10088000064C074D06E0E06840F0010394E80700DD
:1008900098471034AC42F6D3FFF74EFC14660008BC
:1008A00034660008202A04DB203A21FA02F00021F5
:1008B000704721FA02F3D040C2F120029140084370
:1008C0001946704700BFFEE77047000001B50849B0
:1008D000009808604FF0E020006940F001004FF000
:1008E000E021086100BF024800680028FBD108BD74
:1008F0008000002051B18200A2F1C042126842F093
:1009000001038200A2F1C042136009E08200A2F15B
:10091000C0421268034B1A408300A3F1C0431A601F
:1009200070470000FEFF0F00D0E901121143C268BA
:100930001143026911434269114382691143C2693B
:100940001143026A1143426A1143826A1143C26A27
:100950001143026B114302689200A2F1C042116080
:10096000816808290BD101688900A1F1C04109689B
:1009700041F0400201688900A1F1C0410A60416B69
:100980000968426B526841EA0211426B926841EA7F
:100990000221426B928941EA0241426B128A41EA8A
:1009A0000251426B127D41EA0261426B926911432E
:1009B0000268521C9200A2F1C0421160C16AB1F5F6
:1009C000804F1BD1816B0968826B526841EA02112A
:1009D000826B926841EA0221826B128A41EA0251DB
:1009E000826B127D41EA0261826B92691143026857
:1009F0009200A2F1C042C2F8041107E06FF0704209
:100A000001688900A1F1C041C1F8042170472DE9B6
:100A1000F041024600250026002000230024002784
:100A200091F803C00CF00F0591F803C00CF0100C06
:100A3000BCF1000F03D091F802C04CEA050591F813
:100A400000C0BCF1000F31D0146800202BE04FF043
:100A5000010C0CFA00F3B1F800C00CEA03069E4248
:100A600020D183004FF00F0C0CFA03F7BC4305FABA
:100A700003FC4CEA040491F803C0BCF1280F06D132
:100A80004FF0010C0CFA00FCC2F814C00AE091F817
:100A900003C0BCF1480F05D14FF0010C0CFA00FC6B
:100AA000C2F810C0401C0828D1D31460B1F800C0AF
:100AB000BCF1FF0F34DD546800202EE000F1080C7B
:100AC0004FF0010808FA0CF3B1F800C00CEA030675
:100AD0009E4221D183004FF00F0C0CFA03F7BC4368
:100AE00005FA03FC4CEA040491F803C0BCF1280F9A
:100AF00005D100F1080C08FA0CF8C2F8148091F83E
:100B000003C0BCF1480F07D100F1080C4FF00108F9
:100B100008FA0CF8C2F81080401C0828CED35460A4
:100B2000BDE8F081416170470161704700BFFEE799
:100B300010B504462CB14FF480510548FFF7F2FF81
:100B400004E04FF480510248FFF7EEFF10BD0000B3
:100B5000001401402DE9F04106460F4614461D469B
:100B60002B4622463946304600F010FA04FB05F0C9
:100B70000249098800F0BDF8BDE8F0816600002058
:100B800001B502E00098401E009000980028F9D1BD
:100B900008BD00002DE9F05F804689461646A6F1A3
:100BA00020001FFA80FA1E49096889881C4A1268C9
:100BB000D28801FB02F0C11700EB5171C1F3C707E6
:100BC0001748006800680AFB070B15480068C388CF
:100BD0001348006882884946404600F0D7F92C2027
:100BE00000F030FB002416E0002510E01BF80400A4
:100BF00080212941084020B10A48008800F026FBE6
:100C000003E00948008800F021FB681CC5B2082DEC
:100C1000ECDB601CC4B2BC42E6DBBDE8F09F000028
:100C200060000020640000206600002070B50446CB
:100C30000D46002624E03046134909688988084497
:100C400012490988884205DD00260F480068C088DF
:100C5000204484B220460C490968C98808440C49DC
:100C60000988884201DD002600242A782146304682
:100C7000FFF790FF6D1C044800688088304486B2FE
:100C800028780028D7D170BD6000002058000020CF
:100C90005A00002000B597B00121080200F0A6FB21
:100CA000012001900420039080060790002002900C
:100CB0000490059006900890099008200A90102052
:100CC0000B9000200C900E900F9010904FF48050DD
:100CD0001190002012901390149001A81590169076
:100CE00008A8FFF721FE01210020FFF703FE17B03F
:100CF00000BD70B504460D4600262C2000F0A2FA77
:100D000000BF03E0284600F0A1FA761CA642F9D302
:100D100070BD000008B50121602000F077FB0320C2
:100D20008DF8020018208DF803004FF48040ADF8D4
:100D3000000069465B48FFF76AFE4FF40040ADF8DB
:100D4000000069465748FFF762FE0120ADF8000039
:100D500069465448FFF75BFE0220ADF80000694683
:100D60005048FFF754FE8020ADF8000069464E4819
:100D7000FFF74DFE4FF48070ADF8000069464A4819
:100D8000FFF745FE4FF40070ADF800006946464895
:100D9000FFF73DFE4FF48060ADF800006946424821
:100DA000FFF735FE4FF40060ADF8000069463E489D
:100DB000FFF72DFE4FF48050ADF8000069463A4829
:100DC000FFF725FE4FF40050ADF8000069463648A5
:100DD000FFF71DFE4FF48040ADF800006946324831
:100DE000FFF715FE4FF40040ADF8000069462E48AD
:100DF000FFF70DFE4FF48070ADF8000069462948FA
:100E0000FFF705FE4FF40070ADF800006946254875
:100E1000FFF7FDFD4FF48060ADF800006946214802
:100E2000FFF7F5FD03208DF8020018208DF8030070
:100E30001020ADF8000069461A48FFF7E8FD2020B1
:100E4000ADF8000069461748FFF7E1FD8020ADF8D6
:100E5000000069461348FFF7DAFD4FF40060ADF873
:100E6000000069460F48FFF7D2FD10208DF80300FF
:100E700003208DF802000220ADF8000069460A4800
:100E8000FFF7C5FD10208DF8030003208DF8020048
:100E90004FF48050ADF8000069460248FFF7B7FDF7
:100EA00008BD0000001401400018014010B50446C0
:100EB000072C00DD10BD28480470204604EBD071DB
:100EC0004910A4EB410139B9F020244908804FF4BE
:100ED000A0702349088006E04FF4A0701F490880E5
:100EE000F0201F490880362000F0ACF9082141EAC3
:100EF000441000F0ABF92A2000F0A4F9002000F023
:100F0000A5F9002000F0A2F914490988491EC1F38F
:100F1000072000F09BF911490978491EC8B200F07A
:100F200095F92B2000F08EF9002000F08FF90020B9
:100F300000F08CF90A490988491EC1F3072000F026
:100F400085F907490978491EC8B200F07FF92C20BD
:100F500000F078F900BFADE75C00002058000020E9
:100F60005A00002010B5FFF7D5FEFFF793FE0120D1
:100F7000FFF7DEFD00F052F900F038F80248007883
:100F8000FFF794FF10BD00005C0000202DE9F04148
:100F900004460D4616461F462A2000F053F920123B
:100FA00000F054F9E0B200F051F9A119491EC1F363
:100FB0000F2000F04BF9A119491EC8B200F046F904
:100FC0002B2000F03FF9281200F040F9E8B200F0C1
:100FD0003DF9E919491EC1F30F2000F037F9E9196D
:100FE000491EC8B200F032F9BDE8F08110B5CF203B
:100FF00000F028F9002000F029F9812000F026F9FE
:10100000302000F023F9ED2000F01CF9642000F0FE
:101010001DF9032000F01AF9122000F017F98120C1
:1010200000F014F9E82000F00DF9852000F00EF929
:10103000102000F00BF9782000F008F9CB2000F028
:1010400001F9392000F002F92C2000F0FFF800200F
:1010500000F0FCF8342000F0F9F8022000F0F6F877
:10106000F72000F0EFF8202000F0F0F8EA2000F080
:10107000E9F8002000F0EAF8002000F0E7F8B120DD
:1010800000F0E0F8002000F0E1F81B2000F0DEF8AE
:10109000B62000F0D7F80A2000F0D8F8A22000F01F
:1010A000D5F8C02000F0CEF8352000F0CFF8C120F0
:1010B00000F0C8F8112000F0C9F8C52000F0C2F80F
:1010C000452000F0C3F8452000F0C0F8C72000F02C
:1010D000B9F8A22000F0BAF8F22000F0B3F800202E
:1010E00000F0B4F8262000F0ADF8012000F0AEF8D2
:1010F000E02000F0A7F80F2000F0A8F8262000F06C
:10110000A5F8242000F0A2F80B2000F09FF80E2094
:1011100000F09CF8092000F099F8542000F096F8AF
:10112000A82000F093F8462000F090F80C2000F082
:101130008DF8172000F08AF8092000F087F80F20BA
:1011400000F084F8072000F081F8002000F07EF81D
:10115000E12000F077F8002000F078F8192000F086
:1011600075F81B2000F072F8042000F06FF81020D2
:1011700000F06CF8072000F069F82A2000F066F80B
:10118000472000F063F8392000F060F8032000F0F9
:101190005DF8062000F05AF8062000F057F83020DD
:1011A00000F054F8382000F051F80F2000F04EF80D
:1011B000362000F047F8C82000F048F82A2000F058
:1011C00041F8002000F042F8002000F03FF8002035
:1011D00000F03CF8EF2000F039F82B2000F032F856
:1011E000002000F033F8002000F030F8012000F07B
:1011F0002DF83F2000F02AF83A2000F023F855207F
:1012000000F024F8112000F01DF80348FFF7B8FCA7
:10121000292000F017F810BDFCBF020010B5022114
:101220000748FFF77FFC40F6FF20FFF7A9FC0221EB
:101230000348FFF779FC40F6FF20FFF7A1FC10BD43
:10124000001801404FF0C0410880704701490880F4
:10125000704700000000026070B5044600F00CF812
:10126000C5882B460348028821460020FFF772FC00
:1012700070BD000058000020014800687047000061
:1012800060000020024A1080024A1180704700006E
:1012900064000020660000200149086070470000DB
:1012A0006000002008B50121082000F0AFF82020E0
:1012B000ADF8000010208DF8030003208DF8020027
:1012C00069460F48FFF7A3FB0120ADF8000069460F
:1012D0000B48FFF79CFB0220ADF800006946084868
:1012E000FFF795FB20210648FFF71EFC012104486B
:1012F000FFF71AFC02210248FFF716FC08BD0000A8
:10130000000C014000BFFEE708B50121102000F0ED
:101310007DF810208DF80300ADF8000003208DF853
:10132000020069460348FFF772FB10210148FFF7EE
:10133000F9FB08BD00100140704708B54FF4E060AC
:1013400000F048F825208DF8000000208DF80100FD
:101350008DF8020001208DF80300684600F002F8C5
:1013600008BD000070B5002100230F22C47804B32B
:10137000154C246804F4E064C4F5E064210AC1F16A
:101380000403CA40447804FA03F1847814402143EA
:1013900009010E4C0678A155047804F01F050124BC
:1013A000AC4005786D11AD0005F1E025C5F80041B0
:1013B00009E0047804F01F050124AC40044D0678D0
:1013C000761145F8264070BD0CED00E000E400E029
:1013D00080E100E002490143024A116070470000C9
:1013E0000000FA050CED00E07047000029B1064A44
:1013F00052690243044B5A6104E0034A5269824332
:10140000014B5A61704700000010024029B1064AA2
:1014100092690243044B9A6104E0034A9269824351
:10142000014B9A61704700000010024030B5002166
:101430000022002400232D4D6D6805F00C0121B120
:10144000042905D0082923D105E0294D056022E0B3
:10145000274D05601FE0254D6D6805F47012234D82
:101460006D6805F48034022505EB92421CB9214DCC
:10147000554305600BE01D4D6D6805F400351DB149
:101480001C4D5543056002E0194D5543056002E0CF
:10149000174D056000BF00BF144D6D6805F0F001E9
:1014A0000909154D6B5C0568DD4045600F4D6D68A1
:1014B00005F4E061090A104D6B5C4568DD4085600C
:1014C0000A4D6D6805F46051C90A0B4D6B5C4568A7
:1014D000DD40C560054D6D6805F44041890B074D41
:1014E0006B5CC568B5FBF3F5056130BD00100240CB
:1014F00000127A0000093D001400002024000020A2
:10150000704710B500F002F810BD00000CB50020C7
:10151000019000903348006840F480303149086001
:1015200000BF3048006800F4003000900198401C73
:101530000190009818B90198B0F5A06FF1D1294831
:10154000006800F4003010B10120009001E000209C
:1015500000900098012843D12348006840F0100013
:10156000214908600846006820F00300086008462A
:10157000006840F0020008601A4840681949486055
:101580000846406848600846406840F4806048600B
:101590000846406820F47C1048600846406840F4E3
:1015A000E81048600846006840F08070086000BF9E
:1015B0000C48006800F000700028F9D00948406825
:1015C00020F00300074948600846406840F00200E8
:1015D000486000BF0348406800F00C000828F9D1BB
:1015E0000CBD0000001002400020024010B500F0C9
:1015F0006FF810BD30B51A4800681A4AB0FBF2F116
:10160000B1F1807F01D301201DE021F07F40401E19
:101610004FF0E022506150170F22002807DA13071D
:101620001D0E114B00F00F04241F1D5503E013077E
:101630001C0E0E4B1C5400BF00204FF0E0229061A6
:1016400007201061002008B100BFFEE74FF0E02046
:10165000006920F001004FF0E021086130BD00007A
:101660000000002040420F0018ED00E000E400E020
:1016700010B51348006840F00100114908600846A1
:101680004068104908400E494860084600680E4905
:1016900008400B4908600846006820F48020086074
:1016A0000846406820F4FE0048604FF41F00886040
:1016B000FFF727FF4FF000600449086010BD0000ED
:1016C000001002400000FFF8FFFFF6FE08ED00E00A
:1016D0000448006820B103480068401E01490860C2
:1016E000704700008000002010B540F225511448DA
:1016F00000F09FF810B3124800F056F9C1B211483B
:1017000002880088401C0F4B18800F4881540078D5
:10171000F02813D10C48807C0D280FD10A48C07CDA
:101720000F280BD118460088142807D1012007493B
:10173000087040F22551024800F00AF810BD000080
:101740000038014054000020BA000020560000205C
:1017500010B50022002340F66A14A14200D100BF58
:101760000A1201249440A3B2DC43048010BD21B1CD
:10177000828942F40052828104E082894DF6FF732F
:101780001A4082817047000000B585B00121042015
:10179000FFF73CFE01218803FFF738FE4FF400708D
:1017A000ADF8100018208DF8130003208DF81200FA
:1017B00004A91748FFF72BF94FF48060ADF810002B
:1017C00004208DF8130004A91148FFF720F94FF405
:1017D000165000900020ADF80400ADF80600ADF8FA
:1017E0000800ADF80C000C20ADF80A006946094865
:1017F00000F06EF8FFF7A1FD012240F225510548E7
:1018000000F041F801210348FFF7B1FF05B000BD2A
:10181000000801400038014002460020B1F5007F79
:1018200000D100BF13880B400BB1012000E0002065
:10183000704770B50246002400230025002040F6C2
:101840006A16B14200D100BFC1F3421501F01F0377
:10185000012606FA03F3012D02D19689334006E0F2
:10186000022D02D1168A334001E0968A33400C12D1
:10187000012606FA04F41688344013B10CB1012095
:1018800000E0002070BDF0B50346002400260025CE
:10189000002040F66A17B94200D100BF1846C1F3D4
:1018A000421401F01F06012707FA06F5012C01D1A9
:1018B0000C3004E0022C01D1103000E014301AB1D9
:1018C00007682F43076002E00768AF430760F0BD79
:1018D0002DE9F04786B005460E460024A24600BF1B
:1018E000A1460027B08900B100BF2F462C8A4CF6D4
:1018F000FF700440F08804432C82AC894EF6F3104C
:101900000440B08831890843718908430443AC819D
:10191000AC8A4FF6FF400440B0890443AC8201A872
:10192000FFF784FD1F48874202D1DDF810A001E0D7
:10193000DDF80CA0A88900F4004040B10AEBCA0011
:1019400000EB0A1031684900B0FBF1F807E00AEB40
:10195000CA0000EB0A1031688900B0FBF1F864207E
:10196000B8FBF0F004012009642101FB1089A8896B
:1019700000F4004040B1322000EBC900B0FBF1F0B0
:1019800000F00700044308E0322000EB0910642156
:10199000B0FBF1F000F00F0004432C8106B0BDE86D
:1019A000F08700000038014001468888C0F3080035
:1019B0007047C1F308028280704700BFFEE7000055
:1019C0000FB4054B10B503A9044A029800F0EEF8D5
:1019D00010BC5DF814FB0000E52200088400002024
:1019E0000FB4084B10B504A902AA039800F0DEF862
:1019F000044602A9002000F070FC204610BC5DF8EF
:101A000014FB0000DB22000802E008C8121F08C116
:101A1000002AFAD170477047002001E001C1121F6F
:101A2000002AFBD1704700002DE9FF5F82B0002142
:101A3000DDE90430020DDDF840B0034318D044F670
:101A40001050A2F2FF3242431514119801281FD002
:101A5000A5EB0B00401C5FEA000A4FF000064E4F5A
:101A6000DFF83891B046504615D5CAF1000413E0AE
:101A7000119801244AA3012801D16FEA0B010298B1
:101A8000119AC0E90031C0E9024206B0BDE8F09FFA
:101A9000CBF10000DFE704460021404A491842EB41
:101AA0000450CDE9001012E0E00707D032463B4673
:101AB00040464946FEF76FFC8046894632463B4623
:101AC00010461946FEF767FC06460F466410002CC8
:101AD000EAD1DDE90401DDE90023BAF1000F06DAFD
:101AE000FEF759FC42464B46FEF755FC05E0FEF773
:101AF0003FFE42464B46FEF73BFE04460E460022A2
:101B0000284BFEF7FBFC03D84FF0FF30014607E0FF
:101B10000022254B20463146FEF796FBFEF797FE46
:101B2000102409E0002C0ADB0A220023FEF73AFD0C
:101B3000039B30321A55641E50EA0102F2D1641C34
:101B4000039AC4F111031444119A012A03D001220B
:101B500008430DD10AE0084304D000204FF0110BD8
:101B6000119072E7A3EB0B056D1E0DE05B4504DDE4
:101B70004FF0000205F1010504E003DA4FF0000226
:101B8000A5F10105002AECD002981199C0E90231B3
:101B9000C0E9004579E70000000014400000F03F74
:101BA000300000000000F0430000E03F2DE9FF4F4F
:101BB00095B09B468946064600250FE2252877D139
:101BC00000242746F84A0121059400E0044316F852
:101BD000013F203B01FA03F01042F7D130782A2868
:101BE00011D06FF02F033078A0F13002092A16D8F7
:101BF000059A44F0020402EB820203EB4202104415
:101C0000761C0590EFE759F8042B0592002A03DAB9
:101C1000504244F40054059044F00204761C30789D
:101C20002E2816D116F8010F44F004042A280DD0EE
:101C30006FF02F023078A0F13003092B09D807EBA1
:101C4000870302EB4303C718761CF3E759F8047BBC
:101C5000761C30786C280FD006DC4C2817D068280A
:101C60000DD06A2814D104E0742810D07A280FD13E
:101C70000DE044F400140AE044F4801401E044F45C
:101C800040147278824202D104F58014761C761CCE
:101C9000307866280BD013DC582877D009DC002870
:101CA00075D04528F6D04628F4D047281AD19DE1B2
:101CB00018E0632835D0642879D0652812D195E1E1
:101CC000702873D008DC6728F1D069286FD06E289F
:101CD0000DD06F2806D1B5E073282CD0752875D0AB
:101CE000782874D05A46179990476D1C75E1C4F353
:101CF0000250022809D003280DD0D9F8001004287A
:101D00000DD00D6009F1040967E1D9F80010EA1758
:101D1000C1E90052F6E7D9F800100D80F2E70D7026
:101D2000F0E719F8041B8DF8001000208DF8010071
:101D3000EA46012003E059F804AB4FF0FF30610799
:101D40004FF0000102D40DE008F101018846B942CC
:101D50000FDA8045F8DB1AF808100029F4D108E002
:101D600008F1010188468142FADB1AF808100029BF
:101D7000F6D105985B46A0EB080721463846179A2E
:101D800000F094FA284400EB080507E04DE029E153
:101D90000DE01AF8010B5A4617999047B8F101085F
:101DA000F7D25B4621463846179A13E142E00A22F1
:101DB0000092C4F302524FF0000A022A08D059F8E8
:101DC00004CB032A4FEAEC710AD00DE029E02AE0A7
:101DD00009F1070121F00702F2E802C1914609E08A
:101DE0000FFA8CFC4FEAEC71042A03D14FFA8CFCF9
:101DF0004FEAEC71002907DA0A460021DCF1000CF9
:101E000061EB02012D2202E0220504D52B228DF880
:101E10000420012203E0E20701D02022F7E79046E8
:101E200059E00A2102E010220DE010214FF0000AD3
:101E300000910BE010224FF0000A44F00404082740
:101E4000009203E008224FF0000A0092C4F302520D
:101E5000022A05D059F804CB0021032A08D009E052
:101E600009F1070121F00702F2E802C1914605E0FD
:101E70001FFA8CFC042A01D10CF0FF0C4FF0000873
:101E8000220728D5702806D0009B83F0100353EA60
:101E90000A0305D00EE040228DF80420012208E05C
:101EA0005CEA010206D030228DF804208DF805008E
:101EB00002229046009B83F0080353EA0A030AD1EA
:101EC0005CEA010201D1620705D530228DF80420B9
:101ED0004FF001087F1E582804D034A003900EA8AC
:101EE00002900DE036A0F9E753466046009AFEF7EF
:101EF00059FB84460398825C0298401E029002704F
:101F00005CEA0100F0D1029806A9081A00F1200A43
:101F1000600702D524F4803400E00127574502DD34
:101F2000A7EB0A0000E0002000EB0A0100900598F2
:101F30004144401A0590E00306D45B462146179AB7
:101F4000059800F0B3F90544002706E001A85A46B9
:101F5000C05D179990476D1C7F1C4745F6DBE00379
:101F60000CD55B462146179A059800F09FF9054469
:101F700004E030205A46179990476D1C0099481E7E
:101F800000900029F5DC08E0029802995A46007892
:101F9000491C0291179990476D1CBAF10001AAF1F2
:101FA000010AF1DC65E1000009280100303132331B
:101FB0003435363738396162636465660000000085
:101FC000303132333435363738394142434445466F
:101FD0000000000000F058F90544761C3078002815
:101FE0007FF4ECAD19B02846BDE8F08F620700D44D
:101FF000062709F1070222F0070CFCE80223E1465C
:1020000003F000485FEA080C02D00FF2702C0DE0DC
:102010005FEA045C02D50FF2682C07E05FEAC47C3B
:1020200002D00FF2602C01E0AFF2700C4FF0FF38DD
:1020300023F00043CDF850C065280CD006DC4528BD
:1020400009D046281DD047283DD13DE0662818D04C
:1020500067287ED138E00021112F01DB112000E03C
:10206000781CCDE9000106A90EA8FFF7DDFCDDE92B
:102070000F010E9A03910021009207F1010A0491C9
:102080004DE04FF000400097CDE9011006A90EA8E1
:10209000FFF7CAFCDDE90F0203920E9B11990022A3
:1020A000DDF80CA00093049211B9791C00EB010A31
:1020B000B7EB0A0004D4C0F1FF3007F1010A049025
:1020C000AAEB0700019044E0012F00DA012700216C
:1020D000112F01DD112000E03846CDE9000106A9ED
:1020E0000EA8FFF7A1FCDDE90F010E9A0391002174
:1020F00004910092BA4621070CD40399514500DAA5
:102100008A46BAF1010F05DD009AAAF10101515C7E
:10211000302908D0B84202DA10F1040F06DA0121A2
:10212000CDE9011015E0AAF10101E9E7002805DC7D
:10213000049901440491AAEB000102E0411C5145BD
:1021400000DD8A460499401A401C01904FF000407F
:102150000290200704D40198504501DBCDF804809B
:1021600000208DF84F0002980DF14F07B0F1004F9D
:1021700025D02B200E9002984FF0020800280CDA90
:10218000404202902D200E9007E00A210298FEF7AF
:10219000F3F93031029007F8011DB8F10001A8F100
:1021A0000108F2DC02980028EFD1791E0E98087021
:1021B000307800F0200040F0450007F8020D12A82A
:1021C000C01B00F107081498007800B1012000EB53
:1021D0000A01019801EBE07105984144401A401E44
:1021E0000590E00306D45B462146179A059800F057
:1021F0005DF805441498007818B15A46179990472D
:102200006D1CE00324D55B462146179A059800F023
:102210004DF805441CE00498002807DBDDE90301C4
:10222000884203DD0098405C179901E0179930203F
:102230005A469047049805F10105401C0490019806
:10224000401E019004D12E205A46179990476D1CCC
:10225000BAF10001AAF1010ADDDC05E017F8010B73
:102260005A46179990476D1CB8F10001A8F1010872
:10227000F4DC5B462146179A0598ABE62D0000007A
:102280002B000000200000002DE9F041044600254D
:102290001E461746880404D405E039462020B0477E
:1022A0006D1C641EF9D52846BDE8F0812DE9F0418A
:1022B000044600251E469046C80301D5302700E09D
:1022C0002027880404D505E041463846B0476D1CF8
:1022D000641EF9D52846BDE8F0810A68531C0B60DE
:1022E0001070704770B504460D46E1B20548FFF71F
:1022F00060FB00BF80210348FFF78EFA0028F9D069
:10230000204670BD0038014086B0FFF773F9FEF734
:1023100029FEFFF739FAFEF7C5FFFEF7F5FF0620A5
:10232000FEF7C4FDFD48FEF7B7FFFD480388FD48F2
:10233000028800210846FEF70DFC4FF6FF714FF4AE
:102340007840FEF79FFFFEF797FFC0884004040C1B
:10235000F5A12046FEF76AFC4FF6FF711F20FEF73D
:1023600091FFFEF789FFC0888004040CF6A1204687
:10237000FEF75CFCFEF780FFC088C0EBC00084B2B3
:10238000F7A12046FEF752FCFEF776FFC08800EB6F
:1023900080004004040CF8A12046FEF747FCFEF73D
:1023A0006BFFC08800EB800101EBC00084B2F7A195
:1023B0002046FEF73BFC09E3F948007801287DD16F
:1023C000F84908600020F8490880F54908704CF287
:1023D0005030FEF77BFAF5484078F5490870F3482D
:1023E00080780006F149C97800EB0140EF4909798E
:1023F00000EB0120ED4949790844EE490860EB48BB
:1024000080790006E949C97900EB0140E749097A7A
:1024100000EB0120E549497A0844E7490860E348B0
:10242000807A0006E149C97A00EB0140DF49097B67
:1024300000EB0120DD49497B0844E0490860DB48A6
:10244000807B0006D949C97B00EB0140D749097C54
:1024500000EB0120D549497C0844D9490860084669
:102460000068FEF70AF80546D4480068FEF705F84C
:1024700006462946FDF7AAFE0446D249FDF774FE3A
:10248000D1490860084601684FF07E50FDF79EFE76
:10249000CE490860CA480068FDF7EFFF0546C54809
:1024A0000068FDF7EAFF0646C949FDF75DFE0446F0
:1024B0002946FDF78BFEC749086000E074E2BC487E
:1024C0000078001130B1012808D010280ED0112852
:1024D00010D107E00020C049086000BFBF48BE49D6
:1024E000086000BFBE48BC49086000BFBD48BA498B
:1024F000086000BF0020B849086000BF00BFAC48BA
:10250000007800F00F0090B101280CD0102802D004
:10251000112810D103E00020B349086000BFB34880
:10252000B149086000BFB248AF49086000BFB14878
:10253000AD49086000BF0020AB49086000BF00BF84
:1025400008460068FDF7AFFF04460D46A248006844
:10255000FDF7A9FFCDE9020197480068FDF78DFF5F
:102560000190FDF7A0FF8046A34AA44BFDF713FF9F
:102570000646DDE90223FDF767FE22462B46CDE93C
:102580000401FDF761FE8246FDF7D0FF9C4908601B
:102590009C498D480068FDF7E5FF1CD28A48006819
:1025A000FDF781FF044622460B4697A19C48FFF7A2
:1025B00017FAFEF761FEC0888004040C2046FEF77F
:1025C0004BFEFEF759FEC0888004040C9449204657
:1025D000FEF72CFB52E093497B480068FDF7C2FFF1
:1025E00020D2884978480068FDF7F0FD0646FDF7DF
:1025F0005AFF044622460B468BA18948FFF7F0F9A3
:10260000FEF73AFEC0888004040C2046FEF724FE44
:10261000FEF732FEC0888004040C81492046FEF794
:1026200005FB2BE0684801680020FDF79BFF01D205
:10263000012000E00020824988421FDA794962487F
:102640000068FDF7C3FD0646FDF72DFF0446224650
:102650000B467CA17248FFF7C3F9FEF70DFEC08858
:102660008004040C2046FEF7F7FDFEF705FEC08847
:102670008004040C6A492046FEF7D8FA53480068E3
:10268000FDF711FF0446754A754BFDF737FF22D25F
:102690005C494E480068FDF767FD0646FDF703FFFD
:1026A000044622460B466FA15D48FFF799F9FEF7F5
:1026B000E3FDC088C0EBC00084B22046FEF7CCFD2D
:1026C000FEF7DAFDC088C0EBC00084B25449204652
:1026D000FEF7ACFA0EE13D480068FDF7E4FE064661
:1026E0005E4A5F4BFDF7F2FE01D2012000E00020C0
:1026F0008046FDF7C7FE04465F4A604BFDF7FEFECD
:102700000BD2484931480068FDF72EFD0646FDF71B
:10271000CAFE044622460B46B2E0C9E0680000202B
:102720005A00002058000020202020446967697466
:10273000616C204672657175656E6379204D6574B4
:1027400065722020200000002020467265717565AA
:102750006E6379203A20207878782E78780000000F
:102760002020506572696F64202020203A20207854
:1027700078782E7878000000202044757479202025
:102780002020203A207878782E787800202054690C
:102790006D6520202020203A207878782E787800E7
:1027A00056000020140C014054000020BA00002004
:1027B00030000020280000202C00002034000020E1
:1027C0003800002020BC3E4D3C000020400000208E
:1027D0000000C842440000204C0000200AD7A33A61
:1027E0000AD7233B8FC2753B500000200AD7A3BAFB
:1027F0000AD723BB8FC275BB7B14AE47E17A743F07
:102800004800002000007A442020467265717565FA
:102810006E6379203A20252E336620487A00000026
:102820008800002000247449202046726571756577
:102830006E6379203A20252E3366206B487A00009B
:1028400000CA9A3B20204672657175656E637920D7
:102850003A20252E3366204D487A0000FCA9F1D29B
:102860004D62503F2020506572696F64203A2025E8
:102870002E3366206D7300008DEDB5A0F7C6B03E17
:1028800053A15848FFF7ACF8FEF7F6FCC088C0EB40
:10289000C00084B22046FEF7DFFCFEF7EDFCC088E6
:1028A000C0EBC00084B24F492046FEF7BFF921E0DB
:1028B0004D494E480068FDF757FC0646FDF7F3FD0D
:1028C000044622460B464AA14648FFF789F8FEF720
:1028D000D3FCC088C0EBC00084B22046FEF7BCFC2D
:1028E000FEF7CAFCC088C0EBC00084B23D49204658
:1028F000FEF79CF943480068FDF7D5FD04462246E3
:102900000B4641A13748FFF76BF8FEF7B5FCC088CE
:1029100000EB80004004040C2046FEF79DFCFEF70F
:10292000ABFCC08800EB80004004040C2D4920461D
:10293000FEF77CF939480068FDF7B5FD04462246EC
:102940000B4637A12748FFF74BF8FEF795FCC088E8
:1029500000EB800101EBC00084B22046FEF77CFC56
:10296000FEF78AFCC08800EB800101EBC00084B256
:102970001C492046FEF75AF92E4801682EA0FFF7A1
:102980001FF83348016833A0FFF71AF83748016889
:1029900037A0FFF715F83C4801683CA0FFF710F896
:1029A00001204049086011E03F48FDF78FFF1021EA
:1029B0003E48FEF7B9F842F21070FDF787FF10218C
:1029C0003A48FEF7AFF83A48FDF780FFF4E400001C
:1029D0002020506572696F64203A20252E336620CE
:1029E0007573000088000020286B6E4E40000020A8
:1029F0002020506572696F64203A20252E336620AE
:102A00006E7300004400002020204475747920205B
:102A1000203A20252E32662025250000480000207F
:102A2000202054696D652020203A20252E34662010
:102A300075732000280000200D0A20206475747929
:102A4000436E7420203D202564200D0A0000000004
:102A50002C0000200D0A202064656C61795F636E94
:102A6000743D202578200D0A00000000340000206D
:102A70000D0A20206678436E74202020203D2025FA
:102A800078200D0A00000000380000200D0A2020E8
:102A90006662617365436E74203D202578200D0ABF
:102AA00000000000100C0140804F12000010014097
:102AB00020A107000000000000000000000000004E
:102AC0000000000000000018181818181808000866
:102AD000180000000000003424242400000000003E
:102AE000000000000000000016247F2424247E241F
:102AF00024000000000000083E6848681C161212FE
:102B00007C10100000000061D2967408101629494C
:102B1000C6000000000000003C646438724ACE46E3
:102B20007F000000000000181818180000000000C6
:102B30000000000000000004081810303030301091
:102B400010180C04000000201008080C0404040CE9
:102B500008181020000000080A341C6A0800000051
:102B6000000000000000000000001818187F18186E
:102B70001800000000000000000000000000001825
:102B8000180830000000000000000000003C0000B9
:102B9000000000000000000000000000000000181D
:102BA000180000000000000206040C0808101020A5
:102BB00020400000000000003C6642475B73426614
:102BC0003C000000000000001878480808080808C9
:102BD0007E000000000000003C46060604081020AD
:102BE0007E000000000000007C0606043C02020695
:102BF0007C000000000000000C1C14246444FF044E
:102C000004000000000000007E6060607E0202069A
:102C10007C000000000000001E30604876424262E6
:102C20003C000000000000007E0206040C081810A2
:102C300030000000000000003C6242361C66424248
:102C40003C000000000000003C664242661A02049C
:102C500078000000000000000000181800000018B4
:102C60001800000000000000000018180000001804
:102C70001808300000000000000004183060100C3C
:102C80000600000000000000000000007E007E0042
:102C900000000000000000000000301804060C10C6
:102CA00020000000000000301C060606181000106E
:102CB000100000000000001C224141DDB5A5A5AFB9
:102CC00094C0403C00000000181C342426627E435F
:102CD000C1000000000000007C4642467C424242A7
:102CE0007C000000000000001E204040404040608A
:102CF0003E000000000000007C4642434343424641
:102D000078000000000000007E6060607E6060600F
:102D10007E000000000000007E6060607E606060F9
:102D200060000000000000001E604040CE42426291
:102D30003E00000000000000424242427E42424209
:102D400042000000000000007E181818181818181B
:102D50007E000000000000007C040404040404441D
:102D600078000000000000004244485070584C4475
:102D70004200000000000000202020202020202011
:102D80003E000000000000006266675F5B5BC1C13F
:102D9000C100000000000000626272525A4A4E46B2
:102DA00046000000000000003C6243C3C3C343620E
:102DB0003C000000000000007C4642424678404053
:102DC00040000000000000003C6243C3C3C34362F4
:102DD0003C180F00000000007C6662667C6C646634
:102DE00062000000000000003E6040601C0602021D
:102DF0007C000000000000007F1818181818181830
:102E0000180000000000000042424242424242627A
:102E10003C00000000000000C14342622624341C34
:102E20001800000000000000C1C141495B5B7666EC
:102E3000660000000000000043663418181C246679
:102E4000C300000000000000C14266341C181818BE
:102E500018000000000000007E02040C1810206022
:102E60007E0000000000001C101010101010101048
:102E70001010101C000000402020101008080C0446
:102E8000060200000000003C0C0C0C0C0C0C0C0C9E
:102E90000C0C0C3C00000000181C24620000000018
:102EA0000000000000000000000000000000000022
:102EB000000000FF000000201000000000000000E3
:102EC000000000000000000000003C06023E4246F8
:102ED0007A0000000000004040405C6242424242F2
:102EE0007C0000000000000000001E206040602008
:102EF0003E0000000000000202023E6242424266C2
:102F00003A0000000000000000003C62427E406089
:102F10003E0000000000000F1810107E101010106E
:102F2000100000000000000000003F6642665840AC
:102F30003E43423C0000004040405C62424242420C
:102F4000420000000000001818007808080808086F
:102F50007E000000000000040C007C040404040453
:102F600004040C78000000606060626C7870686433
:102F70006200000000000078080808080808080837
:102F80007E000000000000000000764B4B4B4B4BD6
:102F90004B0000000000000000005C624242424220
:102FA000420000000000000000003C624243426218
:102FB0003C0000000000000000005C62424242420F
:102FC0007C4040400000000000003E6242424266F9
:102FD0003A0202020000000000006E72636060604E
:102FE000600000000000000000003E20203C0602BF
:102FF0007C000000000000001010FE1010101010E7
:103000001E000000000000000000424242424266F2
:103010003A0000000000000000004342662434181B
:1030200018000000000000000000C1C15B5A5E668D
:103030006600000000000000000062261C181C262C
:103040006200000000000000000043426624341CBF
:10305000181830E00000000000007E060C18102058
:103060007E0000000000000E1810101030701010CC
:103070001010180E000008080808080808080808BA
:103080000808080800000030180808080C0E080896
:10309000080818300000000000000000714B060016
:1030A0000000000000000000000000000000000020
:1030B0000000000000000000000000000000000010
:1030C0000000000000000000000000000000000000
:1030D000000000000000000000000000000003806D
:1030E00001800180018001800180018001800180D8
:1030F00001800000000003C003C0000000000000C9
:1031000000000000000000000000000000000E7041
:103110000E700E700C300000000000000000000077
:10312000000000000000000000000000000000009F
:10313000000000000000000000000000000000008F
:103140000618063806307FFE0C300C300C300C3080
:103150007FFE0C601C60186018600000000000001A
:1031600000000000000000000000000000C000C0DF
:103170000FF83CC831C031803D801F8003F001F85A
:10318000031C030C031C3FF83FE00700060000008F
:103190000000000000000000000000001C007E0E87
:1031A000630C631863307E6000C001800300077CFD
:1031B0000EE61CC618C630C6607C00000000000089
:1031C00000000000000000000000000000000FE010
:1031D0001CF0387038701C601FC00F003F8C71CC21
:1031E00060EC607C70383CFC1FCE000000000000EA
:1031F000000000000000000000000000000003C00C
:10320000018001800180000000000000000000003B
:1032100000000000000000000000000000000000AE
:10322000000000000000000000000000003000E08E
:1032300001C0018003000700060006000E000E001A
:103240000E000E00060007000300038001C000E02E
:103250000030000000000000000000000C0006002C
:103260000380018001C000E0006000600070007019
:1032700000700060006000E000C001800380060074
:103280000C000000000000000000000000000180B1
:1032900011881DB803C007E03DBC01880180000013
:1032A000000000000000000000000000000000001E
:1032B000000000000000000000000000000000000E
:1032C00000000000018001800180018001807FFEFC
:1032D00001800180018001800000000000000000EA
:1032E00000000000000000000000000000000000DE
:1032F00000000000000000000000000000000000CE
:103300000000000003C003C001C001C003801F0013
:1033100000000000000000000000000000000000AD
:1033200000000000000000000000000000000FF09E
:10333000000000000000000000000000000000008D
:10334000000000000000000000000000000000007D
:10335000000000000000000000000000000000006D
:103360000000000003C003C003C000000000000014
:103370000000000000000000000000000000001835
:1033800000380030006000E000C001C00180030090
:10339000030006000E000C001C00180030000000A6
:1033A000000000000000000000000000000001809C
:1033B0000FF01C38381C301C707E70EE738E7E0E41
:1033C0007C0C300C381C1E780FE000000000000060
:1033D00000000000000000000000000000000000ED
:1033E00007C01FC039C001C001C001C001C001C079
:1033F00001C001C001C03FFC3FFC00000000000014
:103400000000000000000000000000000000038039
:103410001FF018380038001800380038007001E03C
:10342000038007001C003FFC3FFC00000000000080
:103430000000000000000000000000000000078005
:103440001FF0003800380038003007E007F000387F
:10345000001C001C001820F83FE0000000000000E5
:10346000000000000000000000000000000000005C
:1034700000F001B0033007300E301C3038307030AF
:103480007FFE7FFE003000300030000000000000B2
:10349000000000000000000000000000000000002C
:1034A0001FF818001800180018001FE000F8001C92
:1034B000001C001C003800F01FC0000000000000CD
:1034C00000000000000000000000000000000000FC
:1034D00003F80F001C001800300037F83C3C300C9B
:1034E000300C380C381C1E380FF0000000000000B3
:1034F00000000000000000000000000000000000CC
:103500003FFC001C001800380070006000E001C0A3
:1035100001800380070006000E000000000000008C
:10352000000000000000000000000000000003C0D8
:103530001FF8381C381C381C1C380FF007F01C789A
:10354000381C300C381C3C380FF000000000000024
:1035500000000000000000000000000000000380E8
:103560001FF03838301C701C700C380C1FFC0FCC4E
:10357000001C001800701FE01F8000000000000009
:10358000000000000000000000000000000000003B
:1035900000000000000003C003C001800000000024
:1035A0000000000003C003C003C0000000000000D2
:1035B000000000000000000000000000000000000B
:1035C00000000000000003C003C0018000000000F4
:1035D0000000000003C003C001C001C003800F0051
:1035E00000000000000000000000000000000000DB
:1035F00000000000003800F001C007001E00380085
:103600000E00078001C000700030000000000000C4
:1036100000000000000000000000000000000000AA
:10362000000000000000000000003FFC000000005F
:103630003FFC3FFC00000000000000000000000014
:10364000000000000000000000000000000000007A
:10365000000000001C000F00038001E00078001C47
:10366000007001E003800E000C000000000000006C
:1036700000000000000000000000000000000FC07B
:1036800000F0003800380038003803F003800300F1
:103690000300000000000780078000000000000019
:1036A00000000000000000000000000000E007F83B
:1036B0000C0C18063006700363F36633C673CC63D4
:1036C000CC62CC66CCE6C7FCE0006000700038102D
:1036D0001FF00000000000000000000000000000DB
:1036E00003C007E006E00E700E700C301C3818188E
:1036F0003FFC3FFC700E600EE00700000000000081
:1037000000000000000000000000000000000000B9
:103710003FF03838381C381C38383FF03FF8381C38
:10372000380C380C381C3FF83FE000000000000067
:10373000000000000000000000000000000000E0A9
:1037400007FC1E0438003800300070007000700064
:10375000300038003C001F9C07FC00000000000007
:103760000000000000000000000000000000000059
:103770003FF03078301C300C300E300E300E300EF2
:10378000300E301C30383FF03FC000000000000019
:103790000000000000000000000000000000000029
:1037A0001FF818001800180018001FF81FF818005C
:1037B0001800180018001FF81FF800000000000093
:1037C00000000000000000000000000000000000F9
:1037D0001FF818001800180018001FF81FF818002C
:1037E0001800180018001800180000000000000061
:1037F000000000000000000000000000000000F0D9
:1038000007FC1E04380030007000700070FC700C63
:10381000700C300C380C1F1C07FC0000000000006E
:103820000000000000000000000000000000000098
:10383000300C300C300C300C300C3FFC3FFC300CAA
:10384000300C300C300C300C300C0000000000004C
:103850000000000000000000000000000000000068
:103860003FFC018001800180018001800180018096
:103870000180018001803FFC3FFC0000000000004F
:103880000000000000000000000000000000000038
:103890001FF00030003000300030003000300030C9
:1038A0000030003000701DE01FC00000000000006C
:1038B0000000000000000000000000000000000008
:1038C000381C387038E039C03B803F003F003B80F7
:1038D00039C038E038703838381C0000000000006B
:1038E00000000000000000000000000000000000D8
:1038F0001C001C001C001C001C001C001C001C00E8
:103900001C001C001C001FFC1FFC0000000000002D
:1039100000000000000000000000000000000000A7
:10392000381C7C3C6C3E6E6E666E66CE63C66386EB
:103930006186600660066006600600000000000008
:103940000000000000000000000000000000000077
:103950003C0C3C0C3E0C360C330C338C318C31CC93
:1039600030EC306C307C303C301C0000000000003B
:10397000000000000000000000000000000001C086
:103980000FF81C3C381C700E700E60066006700E3E
:10399000700E700C381C1E780FE000000000000054
:1039A0000000000000000000000000000000000017
:1039B0003FF0383C381C380C380C381C38783FE065
:1039C00038003800380038003800000000000000DF
:1039D000000000000000000000000000000001C026
:1039E0000FF81C3C381C700E700E60066006700EDE
:1039F000700E700C381C1E780FE0018001C000FFB3
:103A0000003C00000000000000000000000000007A
:103A10003FF0383838183818383838F03FC038E0B8
:103A2000387038383838381C380E00000000000074
:103A3000000000000000000000000000000001E0A5
:103A40000FF83800380038003C001F8003F0007881
:103A5000001C001C001C38783FE000000000000043
:103A60000000000000000000000000000000000056
:103A70007FFE018001800180018001800180018042
:103A800001800180018001800180000000000000B1
:103A90000000000000000000000000000000000026
:103AA000300C300C300C300C300C300C300C300C36
:103AB000300C300C381C1C380FF0000000000000E7
:103AC00000000000000000000000000000000000F6
:103AD000E006700E700E381C381C1C181C380C3098
:103AE0000E70066007E003C003C000000000000085
:103AF00000000000000000000000000000000000C6
:103B000060066006600660066186638673C673CED3
:103B1000766C366C3C3C3C3C381C000000000000DD
:103B20000000000000000000000000000000000095
:103B3000301C38181C380E7007E003C003C007E0C3
:103B40000E701C381838381C700E00000000000081
:103B50000000000000000000000000000000000065
:103B6000700E700C381C1C380E70066007E003C025
:103B700001800180018001800180000000000000C0
:103B80000000000000000000000000000000000035
:103B90003FFC001C0038007000E001C003800700FB
:103BA0000E000C0018003FFC3FFC0000000000006D
:103BB00000000000000000000000000007F007F017
:103BC00006000600060006000600060006000600C5
:103BD00006000600060006000600060006000600B5
:103BE00007F00000000000000000000000001800C6
:103BF0001C000C000600070003000380018001C0C8
:103C000000C000600070003000380018000C000098
:103C10000000000000000000000000000FE00FE0C6
:103C20000060006000600060006000600060006094
:103C30000060006000600060006000600060006084
:103C40000FE0000000000000000000000000000085
:103C500003C006C006600C301818301C00000000BD
:103C60000000000000000000000000000000000054
:103C70000000000000000000000000000000000044
:103C80000000000000000000000000000000000034
:103C90000000000000000000000000000000000024
:103CA000FFFF0000000000000000000000001E00F8
:103CB0000380000000000000000000000000000081
:103CC00000000000000000000000000000000000F4
:103CD00000000000000000000000000000000000E4
:103CE0000000000000001FF01038001C001C0FFC3A
:103CF0001C1C381C381C3CFC1FDC000000000000B1
:103D0000000000000000000000000000000038007B
:103D10003800380038003BF83E1C3C1C380C380C8E
:103D2000380C380C381C3C781FE000000000000004
:103D30000000000000000000000000000000000083
:103D400000000000000007F80E001C0038003800DA
:103D5000380038001C000F1807F8000000000000B1
:103D60000000000000000000000000000000001C37
:103D7000001C001C001C0FFC1C1C381C301C301CC0
:103D8000301C301C383C1CFC0F9C00000000000064
:103D90000000000000000000000000000000000023
:103DA0000000000000000FF01C38381C300C3FFCF5
:103DB0003000300038001E0C07FC0000000000003E
:103DC000000000000000000000000000003C01FEB8
:103DD00003800300030003007FFC7FFC030003005B
:103DE00003000300030003000300000000000000C4
:103DF00000000000000000000000000000000000C3
:103E00000000000000000FFE1C3838183818183861
:103E10001FF03B8030003FF01FFC300E700E381C4E
:103E20001FF8000000000000000000000000380043
:103E30003800380038003BF83E383C1C381C381C31
:103E4000381C381C381C381C381C000000000000CE
:103E5000000000000000000000000000018003C01E
:103E600003C0000000001FC001C001C001C001C0AC
:103E700001C001C001C001C03FFC00000000000003
:103E800000000000000000000000000000200070A2
:103E90000070000000003FF00070007000700070C3
:103EA000007000700070007000700070007020E002
:103EB0003FC00000000000000000000000001800EB
:103EC000180018001800183C187018E01B801F001C
:103ED0001B8019E018701838181C00000000000042
:103EE00000000000000000000000000000001FC0F3
:103EF00001C001C001C001C001C001C001C001C0BA
:103F000001C001C001C001C03FFC00000000000072
:103F100000000000000000000000000000000000A1
:103F20000000000000006F3C79EE71CE718E718E42
:103F3000718E718E718E718E718E00000000000086
:103F40000000000000000000000000000000000071
:103F50000000000000003BF83E383C1C381C381CB8
:103F6000381C381C381C381C381C000000000000AD
:103F70000000000000000000000000000000000041
:103F80000000000000000FF01C3C381C700E700E8A
:103F9000700E700C381C1E780FE00000000000004E
:103FA0000000000000000000000000000000000011
:103FB0000000000000003BF83E1C3C1C380C380C94
:103FC000380C380C381C3C783FE03800380038009A
:103FD00038000000000000000000000000000000A9
:103FE0000000000000000FFC1C1C381C301C301CA2
:103FF000301C301C383C1CFC0F9C001C001C001C9E
:10400000001C000000000000000000000000000094
:1040100000000000000019F81F1C1C0C180E1800EE
:104020001800180018001800180000000000000018
:104030000000000000000000000000000000000080
:104040000000000000000FF81C0018001E000FC048
:1040500001F80018001818381FF0000000000000D8
:104060000000000000000000000000000000000050
:104070000600060006007FFC06000600060006009B
:10408000060006000700078401FC00000000000095
:104090000000000000000000000000000000000020
:1040A000000000000000381C381C381C381C381C6C
:1040B000381C381C383C1CFC0FDC000000000000E1
:1040C00000000000000000000000000000000000F0
:1040D000000000000000700C381C38181C380C3030
:1040E0000E70066007E003C003C00000000000007F
:1040F00000000000000000000000000000000000C0
:10410000000000000000600660066186738E73CCBC
:1041100033CC366C366C3C3C3C3800000000000070
:10412000000000000000000000000000000000008F
:10413000000000000000381C1C380E7007E003C0AF
:1041400003C007E00E701C38381E0000000000009D
:10415000000000000000000000000000000000005F
:10416000000000000000700C381C38181C380C309F
:104170000E70066007E003C003C0038007000E0056
:104180007C000000000000000000000000000000B3
:104190000000000000001FF80038007000E001C0BF
:1041A000038007000C001FFC3FFC00000000000023
:1041B000000000000000000000000000007801F88E
:1041C0000380038003800380038003003F003E00E0
:1041D000030003800380038003800380038001C009
:1041E00000F80000000000000180018001800180D3
:1041F00001800180018001800180018001800180B7
:1042000001800180018001800180018001800180A6
:104210000180000000000000000000001E001F8060
:10422000018001C001C001C001C000C000FC007CD1
:1042300000C001C001C001C001C001C001C00380B5
:104240001F0000000000000000000000000000004F
:10425000000000000000000000001C003F0671CEBE
:1042600060FC0000000000000000000000000000F2
:10427000000000000000000000000000000000003E
:10428000000000000000000000000000000000002E
:10429000000000000000000000000000000000001E
:1042A000000000000000000000000000000000000E
:1042B00000000000000000000000000000000000FE
:1042C00000000000000000000000000000000000EE
:1042D00000000000000000000000000000000000DE
:1042E000000000000000003C00003C00003C00001A
:1042F0003C00003C00003C00003C00003C00003C56
:1043000000003C00003C00003C00003C00003C0081
:10431000000000000000003C00007E00003C0000A7
:10432000000000000000000000000000000000008D
:10433000000000000000000000000000000000007D
:1043400000000000000003C3E003C3E003C3C00398
:10435000C3C003C3C003C3C003C1C000000000004A
:10436000000000000000000000000000000000004D
:10437000000000000000000000000000000000003D
:10438000000000000000000000000000000000002D
:10439000000000000000000000000000000000001D
:1043A00000000000000000000000000001E0E0014B
:1043B000C0E001C0E001C0E03FFFFE3FFFFE03C1DF
:1043C000C00381C00381C00381C07FFFFC7FFFFC6D
:1043D00007838007038007038007038007078000A7
:1043E00000000000000000000000000000000000CD
:1043F00000000000000000000000000000000000BD
:10440000000000000700000F00000E0001FFF00791
:10441000FFF01F0E001E1E001E1C001E1C000FDCE5
:104420000007FC0000FF80003FF00038F8003878FB
:1044300000783C0070783071F83FFFE01FFF00000B
:10444000E00000E00000E0000000000000000000CC
:10445000000000000000000000000000000000005C
:104460000000000000000F800F3FE01E78703C70DD
:1044700070707070E07071C03FE3801FC700000E65
:1044800000001C0000780000F0F001E7FC03CF0EF4
:10449000078E0E0F0E0E1E0E0E3C07BC7003F800AA
:1044A000000000000000000000000000000000000C
:1044B00000000000000000000000000000000000FC
:1044C00000000000000000000001FF0007FF800F57
:1044D00003C00F03C00F03C00F0780079F0003FE38
:1044E0000003F0000FF83C3E7C3C3C1F3C780FF88A
:1044F0007807F87C01F03E03F81FFFFC07FE1F0061
:1045000000000000000000000000000000000000AB
:10451000000000000000000000000000000000009B
:10452000000000000000003E00003C00003C0000D5
:104530003C00003C00003C00003C0000000000008B
:10454000000000000000000000000000000000006B
:10455000000000000000000000000000000000005B
:10456000000000000000000000000000000000004B
:10457000000000000000000000000000000000003B
:104580000000000000800001C0000780000F000054
:104590001E00003C0000780000F00000E00001E098
:1045A0000001E00001C00003C00003C00001C00022
:1045B00001E00001E00000F00000F00000780000E1
:1045C0003C00001E00000F000007C00001C00000FA
:1045D00000000000000000000000000000000000DB
:1045E00000000000000003C00001E00000F0000037
:1045F0007C00003E00001E00000F00000780000746
:10460000800003800003C00003C00003C00003C09B
:10461000000380000780000780000F00001E0000DC
:104620003C0000780000F00001E000038000000082
:10463000000000000000000000000000000000007A
:10464000000000000000001C00001C000018000F0B
:1046500018F007DBE0007F0000FF0007DBE00E182A
:1046600070001800001C00001C000000000000008A
:10467000000000000000000000000000000000003A
:10468000000000000000000000000000000000002A
:10469000000000000000000000000000000000001A
:1046A000000000000000000000000000000000000A
:1046B0000000000000003C00003C00003C00003C0A
:1046C00000003C00003C003FFFFC3FFFFC003C00C2
:1046D000003C00003C00003C00003C0000000000EA
:1046E00000000000000000000000000000000000CA
:1046F00000000000000000000000000000000000BA
:1047000000000000000000000000000000000000A9
:104710000000000000000000000000000000000099
:104720000000000000000000000000000000000089
:10473000000000007C00007E00007E00003E0000C3
:104740001E00003C0000F80007E00004000000002C
:104750000000000000000000000000000000000059
:104760000000000000000000000000000000000049
:104770000000000000000000000000000000000039
:104780000000000000000003FFE003FFE000000065
:104790000000000000000000000000000000000019
:1047A0000000000000000000000000000000000009
:1047B00000000000000000000000000000000000F9
:1047C00000000000000000000000000000000000E9
:1047D00000000000000000000000000000000000D9
:1047E00000000000000000000000000000000000C9
:1047F000000000007C0000FE0000FE00007E0000C3
:1048000000000000000000000000000000000000A8
:104810000000000000000000000000000000000098
:104820000000000000000000780000F00000E00040
:1048300001E00003C0000380000780000F00000EAD
:1048400000001E00003C0000380000700000F00076
:1048500000E00001C00003C0000780000700000F57
:1048600000001E00001C000000000000000000000E
:104870000000000000000000000000000000000038
:1048800000000000000000000000000001FFC00761
:10489000FFE00F00F01E00781E003C3C00FC3C07CF
:1048A000FC3C1FBC3C7C1C3DF03C3FC03C3F003C02
:1048B0001E00381E00780F80F007FFE001FF800027
:1048C00000000000000000000000000000000000E8
:1048D00000000000000000000000000000000000D8
:1048E000000000000000000000000000007E000347
:1048F000FE001FDE000E1E00001E00001E00001E37
:1049000000001E00001E00001E00001E00001E0011
:10491000001E00001E00001E000FFFF80FFFF80031
:104920000000000000000000000000000000000087
:104930000000000000000000000000000000000077
:1049400000000000000000000000000003FF800FD6
:10495000FFE00E01F00000F00000F00000F00000A9
:10496000F00001E00003C0000F80003E00007C006A
:1049700001F00003C0000F80001FFFFC1FFFFC00C0
:104980000000000000000000000000000000000027
:104990000000000000000000000000000000000017
:1049A0000000000000000000000000000FFF800F6A
:1049B000FFE00001E00000F00000F00001E0000373
:1049C000C001FF0001FFC00003F000007800007884
:1049D0000000780000780001F00FFFC00FFF00001A
:1049E00000000000000000000000000000000000C7
:1049F00000000000000000000000000000000000B7
:104A0000000000000000000000000000000FC000D7
:104A10001FC0003FC0007BC000F3C001E3C003C360
:104A2000C00783C00F03C01C03C03803C07FFFFE54
:104A30007FFFFE0003C00003C00003C00003C000EE
:104A40000000000000000000000000000000000066
:104A50000000000000000000000000000000000056
:104A60000000000000000000000000000FFFE00F49
:104A7000FFE00F00000F00000F00000F00000F000C
:104A8000000FFF800FFFE00000F0000078000078CA
:104A90000000780000F00003E00FFFC00FFE0000F0
:104AA0000000000000000000000000000000000006
:104AB00000000000000000000000000000000000F6
:104AC000000000000000000000000000003FF001B6
:104AD000FFF003E0000780000F00001E00001E1F13
:104AE000001FFFE01FC1F81E00781E003C1E003CA6
:104AF0001E003C0F00780F80F807FFE001FF8000E8
:104B000000000000000000000000000000000000A5
:104B10000000000000000000000000000000000095
:104B20000000000000000000000000001FFFFC1F4C
:104B3000FFFC0000780000F00000E00001E000034E
:104B4000C0000780000F00000F00001E00003C00A6
:104B500000780000F00001F00001E00003C0000058
:104B60000000000000000000000000000000000045
:104B70000000000000000000000000000000000035
:104B800000000000000000000000000003FFE00F34
:104B9000E3F00F00781E00781E00780F00F007E3A6
:104BA000E001FF8001FF8007E7E00F00F81E0078BA
:104BB0001E003C1E007C1F00F80FFFF003FFC0002A
:104BC00000000000000000000000000000000000E5
:104BD00000000000000000000000000000000000D5
:104BE00000000000000000000000000003FF800F34
:104BF000C7E01E00F01E00783C00783C00783C00C6
:104C0000381E00780FEFF807FFB800007800007832
:104C10000000F00001E0000FC00FFF000FF00000E7
:104C20000000000000000000000000000000000084
:104C30000000000000000000000000000000000074
:104C40000000000000000000000000000000000064
:104C50000000000000000000007E00007E00007EDA
:104C6000000018000000000000000000000000002C
:104C7000000000003C00007E00007E00003E0000BE
:104C80000000000000000000000000000000000024
:104C90000000000000000000000000000000000014
:104CA0000000000000000000000000000000000004
:104CB0000000000000000000007E00007E00007E7A
:104CC00000001800000000000000000000000000CC
:104CD000000000003E00007E00007F00001F00007A
:104CE0001E00001E0000FC0007F000040000000091
:104CF00000000000000000000000000000000000B4
:104D000000000000000000000000000000000000A3
:104D100000000000400001E00007C0001F00007E0E
:104D20000001F80003E0000F80000F800003E000A6
:104D300000F800003E00000F800003E00000E000EB
:104D40000000000000000000000000000000000063
:104D50000000000000000000000000000000000053
:104D60000000000000000000000000000000000043
:104D70000000000000000000000000000000000033
:104D8000001FFFF80000000000000000001FFFF8F7
:104D90001FFFF800000000000000000000000000FD
:104DA0000000000000000000000000000000000003
:104DB00000000000000000000000000000000000F3
:104DC00000000000000000000000000000000000E3
:104DD000000000000007800003E00000F800003E33
:104DE00000000F800003E00000F80001F00007C0A1
:104DF000001F00007C0001F00007C000030000005D
:104E000000000000000000000000000000000000A2
:104E10000000000000000000000000000000000092
:104E200000000000000001C00001FE00007F8000C3
:104E300007C00001E00000F00000F00001F00003F6
:104E4000E0007FC0007E0000700000700000700075
:104E500000000000000000F80000F80000F800006A
:104E60000000000000000000000000000000000042
:104E70000000000000000000000000000000000032
:104E8000000000000000001F8000FFF003C0780752
:104E9000801C0E000E1C000E3C000F383FC778FF30
:104EA000C770E3C771C3C7F3C387E3C387E3878EC4
:104EB000E3878EE3CF8EE3FFFC71F9F070000070A2
:104EC00000003800003C00000F01C007FFC00000D8
:104ED00000000000000000000000000000000000D2
:104EE000000000000000000000000000007E000044
:104EF0007F0000FF0000E78001E78003C3C003C319
:104F0000C00781E00781E00F00F00F00F81FFFF8F5
:104F10001FFFFC3C003C3C001E78001EF0000F0010
:104F20000000000000000000000000000000000081
:104F30000000000000000000000000000000000071
:104F40000000000000000000000000001FFFC01F64
:104F5000FFF01E00F01E00781E00781E00F01E01FB
:104F6000F01FFFC01FFFE01E01F81E00781E003C6E
:104F70001E003C1E00781E00F81FFFE01FFF00000F
:104F80000000000000000000000000000000000021
:104F90000000000000000000000000000000000011
:104FA00000000000000000000000000000FFF80307
:104FB000FFF807C0000F00001E00001E00003C00AC
:104FC000003C00003C00003C00003C00003E0000B3
:104FD0001E00000F00000FC00803FFF800FFF800DC
:104FE00000000000000000000000000000000000C1
:104FF00000000000000000000000000000000000B1
:105000000000000000000000000000003FFF003F23
:10501000FFE03C01F03C00783C003C3C003C3C00A4
:105020003C3C001E3C001E3C001E3C003C3C003C46
:105030003C00783C00F83C07E03FFFC03FFC00002C
:105040000000000000000000000000000000000060
:105050000000000000000000000000000000000050
:105060000000000000000000000000000FFFF00F33
:10507000FFF00F00000F00000F00000F00000F00F6
:10508000000FFFF00FFFF00F00000F00000F0000F7
:105090000F00000F00000F00000FFFF00FFFF000E7
:1050A0000000000000000000000000000000000000
:1050B00000000000000000000000000000000000F0
:1050C0000000000000000000000000000FFFF00FD3
:1050D000FFF00F00000F00000F00000F00000F0096
:1050E000000FFFF00FFFF00F00000F00000F000097
:1050F0000F00000F00000F00000F00000F00000065
:10510000000000000000000000000000000000009F
:10511000000000000000000000000000000000008F
:1051200000000000000000000000000000FFFC0381
:10513000FFFC0FC0041F00001E00003C00003C00EC
:1051400000780FFC780FFC78003C3C003C3C003CB5
:105150003E003C1F003C0FC03C03FFFC00FFF8007A
:10516000000000000000000000000000000000003F
:10517000000000000000000000000000000000002F
:105180000000000000000000000000003C003C3C6B
:10519000003C3C003C3C003C3C003C3C003C3C00B7
:1051A0003C3FFFFC3FFFFC3C003C3C003C3C003CE7
:1051B0003C003C3C003C3C003C3C003C3C003C0097
:1051C00000000000000000000000000000000000DF
:1051D00000000000000000000000000000000000CF
:1051E0000000000000000000000000000FFFF80FAA
:1051F000FFF8003C00003C00003C00003C00003C8C
:1052000000003C00003C00003C00003C00003C0072
:10521000003C00003C00003C000FFFF80FFFF800CE
:10522000000000000000000000000000000000007E
:10523000000000000000000000000000000000006E
:105240000000000000000000000000000FFFE00F61
:10525000FFE00001E00001E00001E00001E00001EA
:10526000E00001E00001E00001E00001E00001E0F9
:105270000001E00003C00C07C00FFF8007FE000024
:10528000000000000000000000000000000000001E
:10529000000000000000000000000000000000000E
:1052A0000000000000000000000000001E00781E4A
:1052B00001F01E03C01E07801E1F001E3C001E784A
:1052C000001EF0001FF0001EF8001E3C001E1E0015
:1052D0001E0F801E07C01E01E01E00F81E007C008D
:1052E00000000000000000000000000000000000BE
:1052F00000000000000000000000000000000000AE
:10530000000000000000000000000000078000070F
:10531000800007800007800007800007800007806A
:1053200000078000078000078000078000078000DA
:1053300007800007800007800007FFF807FFF800DC
:10534000000000000000000000000000000000005D
:10535000000000000000000000000000000000004D
:105360000000000000000000000000003E007C3F44
:1053700000FC3F81DC3B81DC3BC39C39C39C38E7AC
:105380001C38EF1C387E1C387C1E383C1E78001EF2
:1053900078001E78001E78001E78001E78001E001F
:1053A00000000000000000000000000000000000FD
:1053B00000000000000000000000000000000000ED
:1053C0000000000000000000000000001F003C1F63
:1053D000803C1FC03C1DC03C1DE03C1CF03C1C78C8
:1053E0003C1C783C1C3C3C1C1E3C1C0F3C1C0F3CD9
:1053F0001C07BC1C03FC1C01FC1C00FC1C00FC006A
:10540000000000000000000000000000000000009C
:10541000000000000000000000000000000000008C
:1054200000000000000000000000000001FFC007B5
:10543000FFF00F00F81E007C3C003C3C001E780092
:105440001E78001E78001E78001E78001E3C003C6E
:105450003C003C1E00781F00F007FFE001FF8000C9
:10546000000000000000000000000000000000003C
:10547000000000000000000000000000000000002C
:105480000000000000000000000000001FFF801F5F
:10549000FFF01E00F81E007C1E003C1E003C1E009B
:1054A0003C1E00781E03F01FFFC01FFE001E000000
:1054B0001E00001E00001E00001E00001E00000056
:1054C00000000000000000000000000000000000DC
:1054D00000000000000000000000000000000000CC
:1054E00000000000000000000000000001FFC007F5
:1054F000FFF00F00F81E007C3C003C3C001E7800D2
:105500001E78001E78001E78001E78001E3C003CAD
:105510003C003C1E00781F80F007FFE001FF800088
:105520003C00003C00001F06000FFF0001F80000D7
:10553000000000000000000000000000000000006B
:105540000000000000000000000000000FFF800FBE
:10555000FFE00E01F00E00F00E00F00E00F00E0164
:10556000F00FFFC00FFF000E1F000E07800E03C0DC
:105570000E01E00E00F00E00F80E00780E003C0068
:10558000000000000000000000000000000000001B
:10559000000000000000000000000000000000000B
:1055A00000000000000000000000000003FFF00FFA
:1055B000FFF01F00001E00001E00001F00000FC0B3
:1055C0000007FC0000FF80000FF00001F8000078E9
:1055D0000000780000782000F83FFFE03FFF8000E7
:1055E00000000000000000000000000000000000BB
:1055F00000000000000000000000000000000000AB
:105600000000000000000000000000003FFFFC3F21
:10561000FFFC003C00003C00003C00003C00003C63
:1056200000003C00003C00003C00003C00003C004E
:10563000003C00003C00003C00003C00003C00003E
:10564000000000000000000000000000000000005A
:10565000000000000000000000000000000000004A
:105660000000000000000000000000003C003C3C86
:10567000003C3C003C3C003C3C003C3C003C3C00D2
:105680003C3C003C3C003C3C003C3C003C3C003C86
:105690003C003C1E00781F00F80FFFE003FF800075
:1056A00000000000000000000000000000000000FA
:1056B00000000000000000000000000000000000EA
:1056C000000000000000000000000000F8000F785B
:1056D000001E3C001E3C003C1E00381E00780F00DF
:1056E000700F00F00781E00781E003C3C003E3C04F
:1056F00001E78000F78000FF00007E00007E0000D0
:105700000000000000000000000000000000000099
:105710000000000000000000000000000000000089
:1057200000000000000000000000000078000E787B
:10573000000E78000E78001E38001E38001E383C1F
:105740001C383C1C387E1C387F1C3CE71C3CE79C0A
:105750003DC39C1DC3DC1F81DC1F80F81F00F800C7
:105760000000000000000000000000000000000039
:105770000000000000000000000000000000000029
:105780000000000000000000000000003C003C1E83
:1057900000780F00F00781E003C3C001E78000FF3D
:1057A00000007E00007E0000FF0001FF8003E7C0D4
:1057B00007C3E00F81F01F00F83E007C7C003E0034
:1057C00000000000000000000000000000000000D9
:1057D00000000000000000000000000000000000C9
:1057E00000000000000000000000000078001F3CE6
:1057F000003E1E007C1F00780F80F007C1E003E32D
:10580000C001E78000FF00007E00003C00003C007B
:10581000003C00003C00003C00003C00003C00005C
:105820000000000000000000000000000000000078
:105830000000000000000000000000000000000068
:105840000000000000000000000000001FFFFC1F1F
:10585000FFFC0000F80001E00003C0000780000F1B
:1058600000001E00003C0000780000F00003E00093
:1058700007C0000F80001F00003FFFFC3FFFFC003F
:105880000000000000000000000000000000000018
:105890000000000000000000000000000000000008
:1058A00000000000000001FFC001FFC001E0000196
:1058B000E00001E00001E00001E00001E00001E0A3
:1058C0000001E00001E00001E00001E00001E00073
:1058D00001E00001E00001E00001E00001E0000162
:1058E000E00001E00001E00001E00001FFC0000075
:1058F00000000000000000000000000000000000A8
:105900000000000000000E00000F00000700000370
:10591000800003C00001E00000E00000F00000781B
:1059200000003800003C00001E00000E00000F00C8
:105930000007800003800001C00001E00000E000DB
:10594000007000007800003C000000000000000033
:105950000000000000000000000000000000000047
:1059600000000000000003FF8003FF8000078000AC
:10597000078000078000078000078000078000077D
:1059800080000780000780000780000780000780F4
:105990000007800007800007800007800007800064
:1059A000078000078000078000078003FF80000059
:1059B00000000000000000000000000000000000E7
:1059C000000000000000000000000000003C00009B
:1059D0007E0000E70001C3800381C00700E00E00E5
:1059E000F01E007800000000000000000000000031
:1059F00000000000000000000000000000000000A7
:105A00000000000000000000000000000000000096
:105A10000000000000000000000000000000000086
:105A20000000000000000000000000000000000076
:105A30000000000000000000000000000000000066
:105A40000000000000000000000000000000000056
:105A50000000000000000000000000000000000046
:105A60000000000000000000FFFFFFFFFFFF00003C
:105A70000000000000000000000000000000000026
:105A80000000000000000F800003E00000F80000AC
:105A90003C000000000000000000000000000000CA
:105AA00000000000000000000000000000000000F6
:105AB00000000000000000000000000000000000E6
:105AC00000000000000000000000000000000000D6
:105AD00000000000000000000000000000000000C6
