:020000040800F2
:10000000180500200101000843170008B115000879
:1000100041170008DD0500084D1A00080000000027
:10002000000000000000000000000000471700086A
:10003000DF05000800000000451700084917000808
:100040001B0100081B0100081B0100081B01000820
:100050001B0100081B0100081B0100081B01000810
:100060001B0100081B0100081B0100081B01000800
:100070001B0100081B0100081B0100081B010008F0
:100080001B0100081B0100081B0100081B010008E0
:100090001B0100081B0100081B0100081B010008D0
:1000A0001B0100081B0100081B0100081B010008C0
:1000B0001B0100081B010008B51700081B01000800
:1000C0001B0100081B0100081B0100081B010008A0
:1000D0001B010008451A00081B0100081B0100084D
:1000E0001B0100081B0100081B010008DFF80CD0F1
:1000F00000F098F900480047751A0008180500201C
:100100000648804706480047FEE7FEE7FEE7FEE7B1
:10011000FEE7FEE7FEE7FEE7FEE7FEE7B3170008AF
:10012000ED000008D2B201E000F8012B491EFBD21D
:1001300070470022F6E710B513460A4604461946F2
:10014000FFF7F0FF204610BD2DE9FE4F81EA0304C2
:1001500004F0004421F0004100944FF0000B23F024
:10016000004350EA01045ED052EA03045BD0C3F3BB
:100170000A54C1F30A552C44A4F2F3340194A0FBB1
:100180000254C1F3130141F48011C3F3130343F488
:10019000801301FB024400FB034E840A970A44EAE1
:1001A000815447EA8357A4FB076802958D0A05FB33
:1001B00007854FEA932C04FB0C542705029D4FEA58
:1001C000065847EA1637B5EB08056EEB070C870EA5
:1001D000920E47EA811742EA8312A7FB0201B6EBAF
:1001E0000B0164EB00042B0D43EA0C335E1844EB67
:1001F0001C50DA465146E7FB0201C5F313044FEAEF
:100200000B3343EA14534FEA0432019C43EA0603DA
:10021000A4F10C040294009CCDE900B400F0B3F802
:1002200003B0BDE8F08F00200146F9E72DE9F04D5D
:1002300081EA030404F0004B21F0004514464FF01E
:10024000000A23F0004150EA050220D054EA0102DE
:100250001DD0C5F30A570246C5F31303C1F31300BB
:10026000C1F30A5640F4801543F48013A7EB060847
:10027000101BD64608F2FD3873EB050002D308F1D7
:10028000010801E092185B41B8F1000F03DA002089
:100290000146BDE8F08D00204FF4801106468446EB
:1002A0000EE0171B73EB050705D3121B63EB050369
:1002B00006434CEA010C49084FEA300092185B41B2
:1002C00050EA0107EDD152EA030012D082EA04009D
:1002D00083EA0501084305D0101BAB4106D2012279
:1002E000002306E000224FF0004302E06FF001021D
:1002F00053101AEB06004CEB085110EB0A0041EBCF
:100300000B01BDE8F04D00F02FB870B5C1F30A52F3
:1003100001F000450024C1F3130140F2FF3341F422
:1003200080119A4201DA002070BD40F233439A42B4
:10033000A2F2334203DC524200F006F800E09040A3
:100340002C43F1D0404270BD202A04DB203A21FA30
:1003500002F00021704721FA02F3D040C2F12002DE
:10036000914008431946704710B5141E73F10004FC
:1003700008DA401C41F1000192185B411A4301D197
:1003800020F0010010BD2DE9F04D92469B4611B1C1
:10039000B1FA81F202E0B0FA80F22032904600F029
:1003A00053F804460F4640EA0A0041EA0B0153465F
:1003B0005A46084313D0114653EA010019D0C8F138
:1003C00040025046FFF7C0FF05460E4650465946CC
:1003D000424600F039F8084305D0012004E02046E9
:1003E0003946BDE8F08D0020054346EAE0762C430F
:1003F00037430A986305E40AA0EB08000022FD0ACF
:1004000044EA47540A3002D500200146E9E70105D5
:1004100010196941DDE9084500196941BDE8F04D51
:10042000A2E70000064C074D06E0E06840F001033B
:1004300094E8070098471034AC42F6D3FFF75AFE11
:10044000041B0008241B0008202A04DB203A00FAC1
:1004500002F1002070479140C2F1200320FA03F31B
:1004600019439040704700002DE9F041364C0E468C
:1004700007464FF48070002198461546A0474FF478
:1004800004500021A0474FF480700121A0474FF491
:1004900004500121A0472D4B384631460022FFF77A
:1004A000C5FE2B4B4FF08042FFF74EFEFFF72DFFAE
:1004B000C0F38D3706996FF39F30012D41F440460C
:1004C00008D0D5B900F5804500212846A04707F59A
:1004D000804706E000F5004500212846A04707F5C3
:1004E000004738460021A04730460121A047284652
:1004F0000121A04738460121A047B8F1020F0FD0D3
:10050000B8F1010F14D0B8F1000F18BFBDE8F081A9
:1005100042F20200002100F01DF842F202000EE05B
:1005200042F22800002100F015F842F2280006E00F
:100530004FF40050002100F00DF84FF4005001215D
:10054000BDE8F04100F006B85505000880842E4152
:10055000E17A644170B5C24D0E4604464FF48061A5
:100560000122284600F080F94EB128464FF4006180
:10057000012200F079F928464FF4006108E0A5F562
:10058000806604210122304600F06EF930460421D5
:10059000002200F069F9002616E020044FF0010166
:1005A000284654BF0022012200F05EF928464FF48D
:1005B0008061002200F058F928464FF48061012242
:1005C00000F052F9013664000F2EE6D9A5F58060DF
:1005D00004210122BDE8704000F046B9FEE77047F3
:1005E000EFF3108072B6FEE790F82110022912D1C5
:1005F000016801230A6822F00E020A600A6822F0EC
:1006000001020A60D0E90F1203FA02F24A600021E7
:1006100080F8213002E0042181630121002280F86A
:10062000202008467047000080B590F8211002296C
:100630001DD10368204A4FF0010C1968934221F044
:100640000E011960196821F001011960194912D0D1
:100650001A4A934211D01A4A934210D0194A93422F
:1006600010D0194A934210D14FF4803215E0042182
:10067000816301211BE001220FE010220DE04FF405
:1006800080720AE04FF4805207E001F1680E4FF0EB
:100690008072734508BF4FF480120A60002180F811
:1006A000201080F821C0426B0AB190470021084613
:1006B00080BD00BF04000240080002401C00024050
:1006C0003000024044000240580002402DE9FC4F37
:1006D000594A04234FF0000B4FF001084FF00F0E62
:1006E0004FF000090025904208BF032300930A68D9
:1006F00032FA05F308BFBDE8FC8F08FA05F73A4265
:1007000000F095804A68032A16D9112A24D0122AAB
:1007100026D04C4B9A4213D04B4B9A4210D04B4BA5
:100720009A420DD04A4B9A420AD04A4B9A4207D07D
:10073000494B9A4204D020E0DFE802F00216191D6E
:100740008A6832B1012A4FF0080914BF4761076176
:1007500013E04FF0040910E0CA6802F104090CE04C
:10076000CA6802F10C0908E0D1F80C9005E0CA68EB
:1007700002F1080901E04FF00009082D5A4604462D
:1007800028BF203A28BF043426680EFA02F309FA7B
:1007900002F226EA03031A432260CA79D20646D53A
:1007A000604A0BF00C0C1346126842F001021A600A
:1007B0001A680EFA0CF302F0010201921F4A019C22
:1007C000AC08A2F57E7656F8242022EA030A234AD2
:1007D000904208D0224A904207D0224A009B904281
:1007E00008BF022302E0002300E0012303FA0CF219
:1007F00042EA0A0246F82420104E114C4A68D302FD
:10080000B36854BFBB433B43B3609302236854BFF8
:10081000BB433B4323609303736854BFBB433B43D9
:10082000D2037360326854BFBA433A4332600BF16B
:10083000040B01355BE700BF0014014000040140D8
:100840000C040140000011100000121000002110E3
:10085000000022100000311000003210000801409A
:10086000000C014000100140002A08BF090401618A
:100870007047000005480068704700BF1A480349E8
:1008800000780A6810440860704700BF100100201B
:1008900080B59048016841F010010160032000F02C
:1008A00071F80F2000F004F800F020F8002080BD5F
:1008B00070B50D4E04464FF47A713078B1FBF0F00C
:1008C00091490968B1FBF0F000F0E0FA01250F2C26
:1008D00008D838B94FF0FF3021460022002500F03B
:1008E00033F87460284670BD0000002082B00D48C7
:1008F0000222016841F001010160016801F001017B
:1009000001910199416841F080514160406800F0D7
:100910008050009000980448016862F31A610160F9
:1009200002B070471810024004000140002808DBA4
:1009300000F01F010122400902FA01F1014A42F8C8
:100940002010704700E100E080B5144B1B68C3F332
:10095000022CBCF1030E8CF007034FF0FF3C38BFB4
:100960004FF0000E042B28BF04230CFA03F3994325
:100970000CFA0EF301FA0EF19A431143BDE88040E0
:1009800001F066B805494FF6FF030A681A4060F3A4
:100990000A22034810430860704700BF0CED00E0D6
:1009A0000000FA052DE9F843002800F08E80884603
:1009B00048490446086800F0070040450AD2086824
:1009C00020F0070040EA08000860086800F007000F
:1009D00040457AD120685C4B8946810711D5410793
:1009E00042BF196841F4E0611960010742BF19680C
:1009F00041F4605119601968A26821F0F0011143B7
:100A00001960C0072AD06068012804D153F8041C7B
:100A1000890309D459E053F8041C022802D1890142
:100A200002D452E0890750D519681D4621F0030110
:100A300008431860FFF71EFF064641F28837286812
:100A400061682B4600F00C00B0EB810F06D0FFF779
:100A500011FF801BB842F2D9032037E0D9F800001B
:100A600000F0070040450DD9D9F8000020F007003C
:100A700040EA0800C9F80000D9F8000000F00700BB
:100A8000404522D12068410705D51968E26821F464
:100A9000E06111431960000706D51868216920F448
:100AA000605040EAC10018601C4600F031F821682F
:100AB000094AC1F30311515CC840F2490860074874
:100AC0000068FFF7F5FE002000E0012001B0BDE85E
:100AD000F08300BF00200240EA1A00080400002052
:100AE000E8481949094A00680968C1F30221515CC4
:100AF000C8407047E3481449044A00680968C1F3D4
:100B0000C221515CC840704708000020FA1A000852
:100B100010B50D4C0D48226802F00C03082B18BFCD
:100B200010BDC2F383430AA1CB5CD10302D40D48AC
:100B3000584310BD21680AA25843C1F34041515C9B
:100B4000B0FBF1F010BD00BF0410024000127A00AB
:100B500002030405060708090A0B0C0D0E0F1010FE
:100B60000102000000093D002DE9FC41002800F0D1
:100B7000408104460078C14EC0074AD0706800F03A
:100B80000C00042817D0706800F00C00082802D16F
:100B90007068C0030FD4606898B1B0F5803F06D08C
:100BA0003168B0F5A02F21D141F480203060306849
:100BB00040F4803020E0306880032AD5606840BB74
:100BC00017E1306820F480303060306820F48020F5
:100BD0003060FFF74FFE05463068800319D5FFF7F8
:100BE00049FE411B03206429F6D903E121F480303A
:100BF0003060306820F480203060FFF73BFE05460F
:100C00003068800305D4FFF735FE401B6428F7D910
:100C1000D1E0207880072BD5706810F00C0F07D03A
:100C2000706800F00C00082809D17068C00306D471
:100C30003068800715D52069012812D0D9E02169D4
:100C40008F4800297CD001210160FFF713FE054683
:100C50003068800705D4FFF70DFE401B0228F7D946
:100C6000A9E03068616920F0F80040EAC100306016
:100C7000207800072ED5A06978B181480121C0F8FD
:100C80008014FFF7F7FD0546706A800715D4FFF75B
:100C9000F1FD401B0228F7D98DE079480021C0F80A
:100CA0008014FFF7E7FD0546706A800712D5FFF74D
:100CB000E1FD401B0228F7D97DE072484FF4FA515C
:100CC0000068B0FBF1F0019000BF0198411E0028C0
:100CD0000191F9D12078400776D5F069C0000BD496
:100CE000F0694FF0010840F08050F061F06900F0C9
:100CF00080500090009801E04FF00008624F386883
:100D0000C0050FD4386840F480703860FFF7B2FD3A
:100D100005463868C00505D4FFF7ACFD401B6428C4
:100D2000F7D948E0E068D8B1012805D0316A052834
:100D30002DD141F004003062306A40F001002CE017
:100D400000210160FFF796FD0546306880077FF5BA
:100D50008FAFFFF78FFD411B03200229F5D949E032
:100D6000306A20F001003062306A20F00400306206
:100D7000FFF780FD054641F28837306A80071CD5B1
:100D8000FFF778FD411B0320B942F6D932E021F08C
:100D900001003062306A20F004003062FFF76AFD23
:100DA000054641F28837306A800706D4FFF762FDB6
:100DB000401BB842F7D903201CE0B8F1000F1EBF5A
:100DC000F06920F08050F061E769002F53D070681F
:100DD00000F00C00082810D1012F0AD07068216A99
:100DE00000F480328A4204D1616A00F470108842B3
:100DF00041D0012002B0BDE8F081214900208846A1
:100E00000866FFF737FD0546022F0AD147463068CE
:100E1000800110D5FFF72EFD411B03200229F6D9D2
:100E2000E8E73068800126D5FFF724FD411B032049
:100E30000229F6D9DEE7206AB0F5803F05D1716856
:100E4000A26821F40031114371607168626A104335
:100E500021F474110843706001203866FFF70AFD21
:100E600004463068800106D4FFF704FD011B03200F
:100E70000229F6D9BEE70020BCE700BF00100240FF
:100E8000000042420800002000700040411E002087
:100E9000B0EB116F1CBF01207047044AF023516072
:100EA00003490B70072190601160704710E000E06B
:100EB00023ED00E07047704790F83C300222012B90
:100EC00028D080B580F83D20012280F83C200268BF
:100ED0005368D2F808C0B2F1804F23F0700E0B684F
:100EE00043EA0E035360BDE8804008D00A4B9A42A3
:100EF00005D0354B9A4202D0324B9A4204D1496810
:100F00002CF08003194391600022012180F83C20DD
:100F100080F83D10104670470004004040B310B503
:100F2000044690F83D0028B9002084F83C00204693
:100F300000F020F80220211D84F83D00206800F018
:100F40003FFC012084F8460084F83E0084F83F000E
:100F500084F8400084F8410084F8420084F843009B
:100F600084F8440084F8450084F83D00002010BD5A
:100F700001207047E0B50068124988420ED012493E
:100F8000884218BF8CBD1148016841F400610160BE
:100F9000006800F40060019001988CBD0B480022AD
:100FA000416841F0040141600021406800F0040004
:100FB000009000981E20FFF7C7FC1E20BDE88C4063
:100FC000FFF7B4BC00080040002C0140181002409C
:100FD00010B590F83C2004460220012A08BF10BD3D
:100FE00084F83D0001204FF6777384F83C002068B8
:100FF00082689A4382600A6812B3102A20D0202A9D
:101000001ED0302A1CD0402A21D0502A2BD0602A52
:1010100035D0B2F5005F3ED0B2F5805F4AD0702A7D
:1010200050D1D1E90123C9681A4342EA01218268FB
:1010300022F47F4211438160816841F0770138E0FA
:10104000816821F07001114341F0070131E04B68E4
:10105000CA68194600F0E8FB2068816841F0470142
:1010600021F0300125E04B68CA68194600F0DCFB2E
:101070002068816841F0570121F0200119E04B6898
:10108000CA68194600F0E1FB2068816841F06701F9
:1010900021F010010DE0D1E90123C9681A4342EAA9
:1010A0000121826822F47F4211438160816841F40A
:1010B000804181600020002184F83C10012184F8E7
:1010C0003D1010BD0120F6E77047B0B5044600683A
:1010D000C168026902EA0105A90713D56FF0020190
:1010E0000161012121778069800703D02046FFF745
:1010F000EBFF05E0204600F073F8204600F071F8A1
:1011000000202077680715D520686FF00401016181
:1011100002212177806910F4407F03D02046FFF739
:10112000D3FF05E0204600F05BF8204600F059F8B8
:1011300000202077280714D520686FF0080101618E
:1011400004212177C069800703D02046FFF7BCFF48
:1011500005E0204600F044F8204600F042F8002068
:101160002077E80615D520686FF01001016108218D
:101170002177C06910F4407F03D02046FFF7A4FF19
:1011800005E0204600F02CF8204600F02AF8002068
:101190002077E80706D020686FF001010161204642
:1011A00000F020F8280606D520686FF08001016164
:1011B0002046FFF77FFE680606D520686FF04001E5
:1011C0000161204600F026F8A80658BFB0BD20688F
:1011D0006FF0200101612046BDE8B040FFF76BBE13
:1011E000704770470849884218BF70470748084A47
:1011F000017881F00101017052F8313002EBC10138
:101200004968C0E9023170478000002020000020BA
:101210001000002070477047704700007CB50446FE
:10122000006802680146C56851F8143F5FEA027C15
:1012300065D005F4907603F0010E1EEB060367D02F
:10124000D0071FBF15F48070606C40F0010060642F
:10125000500706D5BEF1000F1EBF606C40F00200C3
:101260006064900706D5BEF1000F1EBF606C40F0B1
:1012700004006064BCF1000F08D505F0200010EBFD
:101280000E001EBF606C40F008006064606C0028B7
:1012900000F0008105EA0200800605D5204600F036
:1012A00013FB206800F114010868616C00F0400035
:1012B00001F00801401800F0DB80204600F0DDFA64
:1012C00020684169490601D4CDE0206850E8050F47
:1012D000216820F0400041E80502002AF5D1E06BCA
:1012E000002800F0C08070494163FFF79DF9002895
:1012F00000F0D080E06B416BBDE87C40084705EA18
:1013000002018A0606D52046BDE87C4000F0DCBA22
:1013100005EA0201226BCB063CD5012A3AD1002115
:101320000191016801914168019101994169490662
:1013300040D4E18DA28DE38D002B00F0AB80511ADB
:101340000A0401D1A6E0206850E8030F226820F4C7
:10135000907042E80303002BF5D1206850E8050F98
:10136000226820F0010042E80503002BF5D120207F
:1013700084F8420000202063206850E8030F2268B0
:1013800020F0100042E80303002BF5D1022089B2BF
:10139000606353E00A0656D449067BD5C16821F044
:1013A0004001C160202084F841002046BDE87C4017
:1013B00000F0FDB8E26B11684B689DB2002D69D05A
:1013C000A18D8D4266D2E3859269202A01D130E059
:1013D000206850E8030F216820F4807041E8030280
:1013E000002AF5D1206850E8050F216820F001009F
:1013F00041E80502002AF5D1206850E8050F216870
:1014000020F0400041E80502002AF5D1202084F8B0
:10141000420000202063206850E8030F216820F07C
:10142000100041E80302002AF5D1E06BFFF7DCF879
:10143000A18D02206063E08D081A81B22046BDE8CC
:101440007C40FFF7E8BE94F84110212922D1A16821
:10145000B1F5805F01D1216981B1216A4A1C226204
:101460000978416011E02046BDE87C40FFF7D4BE1A
:101470002046FFF7D1FE002060647CBD216A31F870
:10148000022B6FF35F2242602162E18C0139E1841B
:10149000090400D07CBDC16821F08001C160C16831
:1014A00041F04001C1607CBD6F18000858B310B511
:1014B000044690F8410028B9002084F840002046F6
:1014C00000F024F8242084F841002068C16821F449
:1014D0000051C160204600F059FA2068016921F4EA
:1014E00090410161416921F02A014161C16841F4E3
:1014F0000051C16000202021606484F8411084F80C
:101500004210606310BD01207047000070B586B0C6
:1015100000264D4CCDE90466CDE90266006804F56D
:10152000405188422FD1474802AD016841F48041C3
:101530000160016801F4804101910199016841F065
:10154000040101602946006800F004000190019840
:10155000022003904FF40070029003200590204673
:10156000FFF7B4F84FF480600396294602902046B6
:101570000496FFF7ABF8252000210022FFF7E4F9DD
:101580002520FFF7D3F906B070BD00BF10B590F865
:101590004230202B07D1012431B12AB10024046349
:1015A00000F036FA00E00224204610BD7047704774
:1015B000FEE700002DE9FF472248234C00220426C5
:1015C0004FF00009016841F020010160016801F05D
:1015D000200100910099016841F004010160016857
:1015E00001F0040100910099016841F008010160D7
:1015F0000421006800F00800009000982046FFF7E2
:1016000033F904F5806540F60141002240F60148B7
:101610002846FFF729F94FF0010A02272046CDE9B5
:10162000006A6E46CDF8089003973146FFF74EF8F2
:1016300028463146CDE9008ACDE90297FFF746F802
:10164000BDE8FF871810024000080140FEB51648AB
:10165000724A00214FF6FF73CDE90411CDE9021162
:10166000C0E90021C0E90213C0E904118161CDE99C
:101670000011FFF753FC08B1FEF7B2FF4FF48050A2
:1016800002A902900848FFF7A3FC08B1FEF7A8FFE3
:1016900000206946CDE900000348FFF70DFC08B1C2
:1016A000FEF79EFF06B080BD38000020FEB543481F
:1016B0005C4A002141F6FF0341F2873CCDE9041169
:1016C000CDE90211C0E90023C0E9021C016181617A
:1016D000CDE90011FFF722FC08B1FEF781FF4FF4BE
:1016E000805002A902903548FFF772FC08B1FEF75E
:1016F00077FF00206946CDE900003048FFF7DCFBAA
:1017000008B1FEF76DFF06B080BD00BF80B5EB48A5
:10171000BE4A4FF4E13100234FF00C0CC0E9002128
:10172000C0E90233C0E9043CC0E90633FFF7BEFE5E
:10173000002814BFBDE8804080BDFEF751BF00BF48
:10174000FEE7FEE770477047FFF798B8B0B590B076
:10175000002401A81421CDE90B44CDE90944FEF78A
:10176000E8FC4FF48030012102250790069108948F
:101770000A91CDE90D504FF4C0100F9006A8FFF765
:10178000F3F918B1EFF3108072B6FEE70F200221D3
:1017900001904FF480600394CDE9040401A8029500
:1017A000FFF700F918B1EFF3108072B6FEE710B042
:1017B000B0BD70470148FFF788BC00BF8000002023
:1017C000B0B50368154DB0F1804F07D0144CA0425E
:1017D00004D0A84202D0134CA04207D14C6823F495
:1017E0005C73CA6824F44074234313434A6923F0AA
:1017F0008003A84242EA030202608A68C2620A6861
:10180000826204BF09692963012141610169C90735
:101810001EBF016921F001010161B0BD002C014032
:101820000004004000080040D0F820C0036A23F004
:1018300001030362836923F0F00343EA0212826129
:101840002CF00A02114301627047D0F820C0036AED
:1018500023F010030362836923F4704343EA0232E6
:1018600082612CF0A00242EA011101627047406AD5
:101870000021C185C184FFF7CFBC016851E8031F77
:10188000026821F4907142E80313002BF5D101683E
:1018900051E8051F026821F0010142E80513002B01
:1018A000F5D1016B012909D1016851E8031F0268D4
:1018B00021F0100142E80313002BF5D1202180F81C
:1018C000421000210163704790F84210222918BF8E
:1018D00070478368B3F5805F05D10169B1B100F14C
:1018E00028010A680BE00146002B51F8282F01D18E
:1018F000036923B103685B6803F07F0301E00368B9
:101900005B6813700A6801320A6007E00168826A46
:1019100049686FF35F2122F8021B8262C18D013991
:10192000C185090400D070470168CA6822F020020E
:10193000CA60CA6822F48072CA604A6922F0010251
:101940004A61202280F8422000224263036B012B6F
:1019500018BFFFF72BBE026351E8031F026821F096
:10196000100142E803130168002BF5D10A68D20682
:1019700008D581B0002200920A680092496800915F
:10198000009901B0818DFFF746BC000010B50446F8
:1019900000680169E26821F44051114341F20C6290
:1019A0000161D4F808C0D4E904E3C16891434EEA68
:1019B0000C021A431143C1604169A26921F44071CC
:1019C000114341611149884202D0FFF789F801E0D3
:1019D000FFF790F819214843D4E900126FF063042F
:1019E0009200B0FBF2F06422B0FBF2F303FB0400C0
:1019F000322404EB0010B0FBF2F000F0F00200F033
:101A00000F0002EB03121044886010BD0038014043
:101A10000023C285436482858162222180F84210BE
:101A20000168006918B1C86840F48070C8604869EE
:101A300040F001004861C86840F02000C860002004
:101A4000704700001D48FFF7E9BB00BFFEE700003C
:101A500010B5074C00F00F03044AB0F1FF3F2344D8
:101A6000C8BF83180801187010BD00BF00E400E073
:101A700014ED00E082B0FEF70BFFFFF767FEFFF703
:101A800099FDFFF743FEFFF7E1FDFFF70FFE0A4C5C
:101A90000A48082204F11001FFF778FD00200849E8
:101AA0000022012300900020FEF7DEFC05480649D5
:101AB000C4E90210FEE700BF20000020C80000209B
:101AC00000408F40C2752540F6285C8F02E008C8B0
:101AD000121F08C1002AFAD170477047002001E0A8
:101AE00001C1121F002AFBD1704700000000000056
:101AF00000000102030406070809000000000102BB
:101B000003040000281B0008000000202000000043
:101B1000CC1A0008481B000820000020F804000030
:101B2000DC1A0008000000000100000010000000A6
:101B30000024F40000000000F6285C8FC2752540E8
:081B40007B14AE47E17A254059
:04000005080000ED02
:00000001FF
