:020000040800F2
:1000000090050020050100083F1D0008911C000814
:100010003D1D00086D0E00080120000800000000D2
:10002000000000000000000000000000431D000868
:100030006F0E000800000000411D0008451D00086B
:100040001F0100081F0100081F0100081F01000810
:100050001F0100081F0100081F0100081F01000800
:100060001F0100081F0100081F0100081F010008F0
:100070001F0100081F0100081F0100081F010008E0
:100080001F0100081F0100081F0100081F010008D0
:100090001F0100081F0100081F0100081F010008C0
:1000A0001F0100081F0100081F0100081F010008B0
:1000B0001F0100081F0100081F0100081F010008A0
:1000C0001F0100081F0100081F0100081F01000890
:1000D0001F010008F51F00081F0100081F0100088C
:1000E0001F0100081F0100081F010008DFF810D0E1
:1000F00000F00CFC0048004711290008AFF3008015
:10010000900500200648804706480047FEE7FEE7C6
:10011000FEE7FEE7FEE7FEE7FEE7FEE7FEE7FEE7B7
:10012000A71D0008ED000008202A04DB203A21FA70
:1001300002F00021704721FA02F3D040C2F1200200
:100140009140084319467047D2B201E000F8012BF4
:10015000491EFBD270470022F6E710B513460A4647
:1001600004461946FFF7F0FF204610BD80EA010261
:1001700010B502F00043400022D04A001FD0010E0B
:1001800001EB1261C0F35600C2F3560240F40000C6
:1001900042F40002A0FB022000047F39140400D0C6
:1001A000401C50EA124001D44000491EC2B20C0665
:1001B00004EBD010401C4008802A02D003E000204D
:1001C00010BD20F00100002900DA0020184310BD06
:1001D00030B480EA010202F0004530F0004221F024
:1001E000004013D090B1C30DD40DC2F31601C0F37B
:1001F0001600E41A41F4000140F400027D349142FB
:1002000001D3641C00E04900002C02DA30BC00205D
:1002100070474FF400000023914201D3891A034331
:1002200040084FEA4101F7D151B1914202D14FF05C
:10023000004105E002D24FF0010101E06FF0010141
:1002400003EBC450284430BC00F00FB92DE9FE4F39
:1002500081EA030404F0004421F0004100944FF0CF
:10026000000B23F0004350EA01045ED052EA03047D
:100270005BD0C3F30A54C1F30A552C44A4F2F334FF
:100280000194A0FB0254C1F3130141F48011C3F3A4
:10029000130343F4801301FB024400FB034E840A62
:1002A000970A44EA815447EA8357A4FB07680295FA
:1002B0008D0A05FB07854FEA932C04FB0C54270598
:1002C000029D4FEA065847EA1637B5EB08056EEB74
:1002D000070C870E920E47EA811742EA8312A7FBAA
:1002E0000201B6EB0B0164EB00042B0D43EA0C3367
:1002F0005E1844EB1C50DA465146E7FB0201C5F399
:1003000013044FEA0B3343EA14534FEA0432019CBF
:1003100043EA0603A4F10C040294009CCDE900B466
:1003200000F05FF903B0BDE8F08F00200146F9E767
:100330000EB540F2334102910021CDE900110A4689
:100340000B4600F04EF903B000BD20F00040C10D97
:10035000C0F3160040F400007F2901DA0020704746
:10036000962903DCC1F19601C84070479639884050
:100370007047000030B5041E71F1000404DB4FF03B
:100380000044404264EB0101141E73F1000405DBDC
:100390001C464FF00043524263EB04038B4208BFFC
:1003A000824230BD01F0004330B421F0004150EAF8
:1003B000010206D00A0DA2F56072C1F31301002AF2
:1003C00002DC30BC00207047440F44EAC104C10085
:1003D000E01830BC00EBC25000F047B830B50B4617
:1003E000014600202022012409E021FA02F59D4265
:1003F00005D303FA02F5491B04FA02F52844151E39
:10040000A2F10102F1DC30BD2DE9F05F05460020CC
:1004100092469B4688460646814640241BE0284675
:10042000414647462246FFF77FFE53465A46C01ACA
:10043000914110D311461846224600F079FA2D1A40
:1004400067EB01084F4622460120002100F070FAB8
:1004500017EB00094E41201EA4F10104DFDC4846E1
:1004600031462A464346BDE8F09F0029A8BF7047A1
:10047000401C490008BF20F00100704710B4B0FADA
:1004800080FC00FA0CF050EA010404BF10BC704775
:1004900049B1CCF1200421FA04F411FA0CF118BF8F
:1004A000012121430843A3EB0C01CB1D4FEA00615E
:1004B0004FEA102042BF002010BC704700EBC35031
:1004C00010440029A4BF10BC7047401C490008BF5D
:1004D00020F0010010BC7047F0B480EA0102D40F94
:1004E0004200B2EB410F02D20246084611464A00D2
:1004F00042D0C30DDDB2C1F3C752AD1A202D35DA9B
:10050000C1F3160141F4000204B15242C5F12006C4
:1005100002FA06F12A411044B3EBD05F23D0C4B1F4
:10052000012DA0EBC35009DCF0BC4FF0004202EA01
:10053000C352DBB200F50000FFF7A0BF400000F19E
:10054000807000EBC350A0F1807040EAD170490088
:1005500009E0490841EAC071A0EBC35000F5000072
:10056000400800EBC350F0BCFFF77FBF614201229F
:1005700002EB4101001BF6E7F0BC704781F000413F
:10058000AAE780F00040A7E710B541000CD0C0F307
:10059000C751962908DC7E2909DC06DB410204D01C
:1005A00000F0004040F07E5010BD002010BDC1F1B1
:1005B0009604C4F1200100FA01F1E040FFF755FF75
:1005C000A04010BD10B5141E73F1000408DA401CE1
:1005D00041F1000192185B411A4301D120F0010062
:1005E00010BD2DE9F04D92469B4611B1B1FA81F252
:1005F00002E0B0FA80F22032904600F099F9044609
:100600000F4640EA0A0041EA0B0153465A460843A6
:1006100013D0114653EA010019D0C8F140025046E8
:10062000FFF782FD05460E4650465946424600F009
:100630007FF9084305D0012004E020463946BDE893
:10064000F08D0020054346EAE0762C4337430A98B4
:100650006305E40AA0EB08000022FD0A44EA4754BF
:100660000A3002D500200146E9E701051019694169
:10067000DDE9084500196941BDE8F04DA2E72DE923
:10068000FE4F804681EA0300C00F0C46009021F027
:10069000004123F00045B8EB0200A94105D24046D5
:1006A000214690461C460B46024623F0004010436C
:1006B00047D0270DC7F30A00C3F30A510290401A2E
:1006C000019040286BDAC3F3130040F4801B0098BC
:1006D000924620B10023D2EB030A63EB0B0B019887
:1006E0005946C0F14002504600F022F906460D4638
:1006F00050465946019A00F02AF910EB0800614172
:10070000002487EA115284EAE7731A4340D0009A22
:1007100062B3019A012A4FEA075215DC001B61EB14
:1007200002014FF0004202EA0752CDE90042001CEC
:1007300041F5801132462B46FFF753FF03B0BDE869
:10074000F08F40462146F9E7001B61EB0201001CD7
:1007500041F5801300185B412018A2F5001747EB04
:10076000030140EAD570B6196D4111E06D084FEAFA
:10077000360645EAC0754FEA0752001B61EB0201DD
:10078000001C41F5801149084FEA30000019514121
:1007900032462B4603B0BDE8F04FFFF713BF009879
:1007A000012240000023D0EB020263EBE0730098CB
:1007B00021464FEAE074B8EB000061EB0401E9E781
:1007C00083F000435BE781F0004158E72DE9F04DED
:1007D00081EA030404F0004B21F0004514464FF079
:1007E000000A23F0004150EA050220D054EA010239
:1007F0001DD0C5F30A570246C5F31303C1F3130016
:10080000C1F30A5640F4801543F48013A7EB0608A1
:10081000101BD64608F2FD3873EB050002D308F131
:10082000010801E092185B41B8F1000F03DA0020E3
:100830000146BDE8F08D00204FF480110646844645
:100840000EE0171B73EB050705D3121B63EB0503C3
:1008500006434CEA010C49084FEA300092185B410C
:1008600050EA0107EDD152EA030012D082EA0400F7
:1008700083EA0501084305D0101BAB4106D20122D3
:10088000002306E000224FF0004302E06FF0010277
:1008900053101AEB06004CEB085110EB0A0041EB29
:1008A0000B01BDE8F04DFFF78DBEC1F30A52C1F355
:1008B000130140F2FF3341F480119A4202DA002022
:1008C0000146704740F233439A42A2F2334202DCBF
:1008D0005242FFF729BC00F02BB8000030B5041ECF
:1008E00071F1000404DB4FF00044404264EB01016D
:1008F000141E73F1000405DB1C464FF00043524206
:1009000063EB0403994208BF904230BD064C074D8B
:1009100006E0E06840F0010394E8070098471034CF
:10092000AC42F6D3FFF7E6FBDC2C0008FC2C0008F9
:10093000202A04DB203A00FA02F10020704791409F
:10094000C2F1200320FA03F3194390407047202A94
:1009500006DBCB17203A41FA02F043EAE07306E0E7
:1009600041FA02F3D040C2F12002914008431946F7
:100970007047000070B500F0FDF8FFF7D9FC0446A1
:100980000D460022514BFFF7F5FC02D25048514969
:1009900087E00022504B20462946FFF7EBFC02D2AD
:1009A0004B484E497DE000224D4B20462946FFF73B
:1009B000E1FC02D24B484C4973E000224B4B2046ED
:1009C0002946FFF7D7FC02D24148494969E0002295
:1009D000484B20462946FFF7CDFC02D246484749FE
:1009E0005FE00022464B20462946FFF7C3FC02D2B7
:1009F0003C48444955E00022434B20462946FFF736
:100A0000B9FC02D2414842494BE00022414B20460A
:100A10002946FFF7AFFC02D22D483F4941E00022B2
:100A20003E4B20462946FFF7A5FC02D23C483D49F3
:100A300037E000223C4B20462946FFF79BFC02D2C0
:100A40002D483A492DE00022394B20462946FFF730
:100A500091FC02D2374A384B1FE00022374B204628
:100A60002946FFF787FC02D2354A364B15E00022B3
:100A7000354B20462946FFF77DFC02D2334A344BE2
:100A80000BE00022334B20462946FFF773FC02D2CD
:100A9000314A324B01E0324A324B20462946FFF7B9
:100AA000D5FB0022304BFFF7D1FBFFF77BFC02F0B8
:100AB000CFF82E49FFF78CFB2D49FFF757FBFFF7C7
:100AC00044FCBDE87040FFF733BC0000004CCD4053
:100AD0007B14AE47E17A843F0017E140E17A943F0E
:100AE000006AE840B81E85EB51B89E3F0017F14000
:100AF000E17AA43F80C0F4409A9999999999A93FC5
:100B000080A2F94051B8AE3F004CFD40EC51B81EF8
:100B100085EBB13FC07A0041E17AB43F804F02419A
:100B20000AD7A3703D0AB73F402404419999B93FC1
:100B3000E092294144EECB943451A43E80A2394145
:100B4000EA522B657C0CA43EC0EB4241C170387860
:100B50000903A43E40064941565D447272FAA33E21
:100B6000F30E55D06BEEA33E00408F4000007A4458
:100B70000000C8422DE9F041214D88460646002775
:100B80004FF480742146284600F026FB0028F9D156
:100B900046EA0801012000F035F84FF40076002203
:100BA0003146284600F025FBFC2000F037F90020F4
:100BB00000F034F92146284600F00EFB0028F9D158
:100BC000012000F02BF90A2000F08AF900F0FEF86D
:100BD00047EA004400F0FAF844EA002700F0F6F88B
:100BE00040EA070400223146284600F002FBB4F533
:100BF000000F01D3A4F180742046BDE8F08100000D
:100C0000000C01402DE9F041114D884604464FF497
:100C1000007600223146284600F0EBFAAF1539463F
:100C2000284600F0D9FA0028F9D104F00F0040F06E
:100C3000500000F0F3F8002000F0F0F8404600F01B
:100C4000EDF831462846BDE8F041012200F0D1BA66
:100C5000000C01402DE9F04F85B00026824658482F
:100C60008B460096019602960396816941F0080131
:100C70008161816901F008010491816941F00401F9
:100C800081618069DFF83C9100F00400049001224A
:100C90004021484600F0ADFA4B4C0122202120466D
:100CA00000F0A7FA01224021204600F0A2FA01221A
:100CB0004021204600F09DFA01254FF0400803270F
:100CC000CDE90085CDE902576946484600F094F920
:100CD0002020CDE90005CDE902576946204600F005
:100CE0008BF9CDE90085CDE902576946204600F031
:100CF00083F94FF48078CDE900864FF00209694608
:100D00002046CDF8089000F077F980208DE8410268
:100D10006946204600F070F96615CDE90065CDE919
:100D200002576946204600F067F9454629462046A5
:100D300000F052FA0028F9D100223146204600F096
:100D400058FAF02000F06AF82946204600F044FAEC
:100D50000028F9D101223146204600F04AFA062146
:100D60000020FFF74FFF04210020FFF74BFF514603
:100D70000220FFF747FF59460320FFF743FF0021FA
:100D80000420FFF73FFF2946204600F025FA0028FF
:100D9000F9D100223146204600F02BFAF02000F075
:100DA0003DF82946204600F017FA0028F9D1012223
:100DB0003146204600F01DFA05B0BDE8F08F000076
:100DC0000010024000080140000C014070B50024F2
:100DD0000A2000F085F8104E00250122202130461F
:100DE00000F007FA0A2000F07BF86006040E0022EB
:100DF0002021304600F0FDF98021304600F0ECF96A
:100E000008B1641CE4B20A2000F06AF86D1C082DD9
:100E1000E3DB204670BD0000000C014070B50546C4
:100E20000A2000F05DF8104E0024280601D50122AA
:100E300000E000224021304600F0DBF901222021B1
:100E4000304600F0D6F90A2000F04AF86806050E90
:100E500000222021304600F0CCF90A2000F040F8B2
:100E6000641C082CE1DB70BD000C0140FEE77047FC
:100E70004FF0E020016921F00401016108480949AF
:100E80000068B0FBF1F0C1B2074801EB410201700C
:100E9000C2EBC1114FF6FF7202EAC10141807047F7
:100EA0007400002000127A00780000200B49498865
:100EB00048434FF0E021486100228A61086940F010
:100EC000010008610869C30701D0C003FAD50869A9
:100ED00020F0010008618A6170470000780000205E
:100EE0000B49097848434FF0E021486100228A61AC
:100EF000086940F0010008610869C30701D0C00318
:100F0000FAD5086920F0010008618A617047000085
:100F10007800002072B6FEE710B590F8211000228C
:100F2000022905D00421816380F82020012010BD12
:100F300001680B6823F00E030B6001680B6823F057
:100F400001030B6090F84030C46B012101FA03F3F8
:100F5000636080F8211080F82020104610BD00004A
:100F600010B590F821100024022903D004218163D8
:100F700001243DE001680A6822F00E020A6001685F
:100F80000A6822F001020A601A4A0168914201D1FE
:100F9000012121E0174A1432914201D110211BE0B6
:100FA000144A2832914201D1891515E0114A3C3288
:100FB000914201D189140FE00E4A5032914202D180
:100FC0004FF4803108E00B4A6432914202D14FF471
:100FD000801101E04FF08071064A083A516001210A
:100FE00080F82110002180F82010416B01B1884762
:100FF000204610BD080002402DE9F84FDFF8B891F7
:10100000002409F1040A0AF1040B23460F270BF10F
:10101000040EC9E00125A5402A40AA427DD1674EB1
:10102000D1F804C0ACEB0608B44532D014DCBCF1F6
:10103000030F3AD009DCBCF1000F2AD0BCF1010F3C
:101040001CD0BCF1020F31D11DE0BCF1110F17D043
:10105000BCF1120F2AD119E0B8F5881F19D006DCAF
:10106000B8F5803F15D0B8F5801F1FD111E0B8F555
:10107000001F0ED0B8F5041F18D10AE0CB6815E0A8
:10108000CB681B1D12E0CB6808330FE0CB680C3334
:101090000CE08B682BB1012B4FF0080303D04561A6
:1010A00004E0042302E0056100E00023FF2A01D8E8
:1010B000064601E000F104064FEA840501D9A5F1D6
:1010C0002005D6F8008007FA05FC28EA0C0803FA88
:1010D00005F548EA0508C6F800804D68ED0062D5C0
:1010E000374DAE6946F00106AE61AD6924F00306E6
:1010F00005F001050095334D06EB050CDCF80850B2
:10110000A607360F07FA06F825EA0805DFF8B880C3
:10111000404503D14FF0000817E044E0DFF8AC8011
:10112000404502D14FF001080FE0DFF8A4804045B0
:1011300002D14FF0020808E0DFF89880404502D164
:101140004FF0030801E04FF0040808FA06F848EAF7
:101150000508CCF808804D68D9F80060ED034D46CD
:1011600001D5164300E096432E604D68DAF8006022
:10117000AD03554601D5164300E096432E604D68F9
:10118000DBF80060ED025D4601D5164300E09643B2
:101190002E604D68DEF80060AD02754601D516433D
:1011A00000E096432E60641C0D682A46E5407FF4FB
:1011B00031AFBDE8F88F00000004014000001110BD
:1011C000001002400000014000080140000C0140F6
:1011D00000100140001401408068084000D0012048
:1011E0007047C26821EA02030A4043EA02410161F2
:1011F00070470AB1016170470904FBE70148806844
:10120000704700006800002002488168027811449D
:101210008160704768000020074810B5016841F000
:1012200010010160032000F075F80F2000F006F8AF
:1012300000F024F8002010BD0020024070B50D4DD4
:1012400004464FF47A712878B1FBF0F00A49096836
:10125000B1FBF0F000F0ECFA48B9102C07D20022F4
:101260002146501E00F036F800206C6070BD012051
:1012700070BD000068000020740000200C4808B514
:10128000816941F001018161816901F001010091F1
:10129000C16941F08051C161C06900F08050009087
:1012A0000448416821F0E06141F00071416008BDEF
:1012B0000010024000000140002809DB00F01F027E
:1012C000012191404009800000F1E020C0F80011A8
:1012D00070470000F0B40E4B1B680C46C3F30223AA
:1012E000C3F10705042D00D90425191D072901D2D2
:1012F000002300E0DB1E012606FA05F1491E21400D
:1013000099409E40761E16403143F0BC00F08ABEE4
:101310000CED00E0064900F0070208684FF6FF03F5
:10132000184040EA0220034A10430860704700005A
:101330000CED00E00000FA052DE9F0470F4605002E
:1013400061D0434E306800F00700B84209D23068DF
:1013500020F0070038433060306800F00700B842E2
:1013600051D128683B4C810712D5400703D56068EE
:1013700040F4E06060602878000703D5606840F4BE
:10138000605060606068A96820F0F0000843606009
:101390002878C00728D06868012810D02168022862
:1013A00010D0890700292EDA616821F0030101437A
:1013B0006160FFF723FF804641F288390DE0216824
:1013C0008903EFE78901EDE7FFF718FFA0EB0801BC
:1013D000494502D90320BDE8F0876068696800F0DC
:1013E0000C00B0EB810FEFD1306800F00700B8427D
:1013F0000BD9306820F0070038433060306800F0C7
:101400000700B84201D00120E5E72878400705D55C
:101410006068E96820F4E0600843606028780007AD
:1014200006D56068296920F4605040EAC100606018
:1014300000F038F86168084AC1F30311515CC840F4
:101440000649086006480068FFF7F8FE0020C2E77A
:101450000020024000100240C22C0008740000204E
:101460006C0000200448054900684968044AC1F33B
:101470000221515CC84070477400002000100240F7
:10148000D22C00080448054900684968044AC1F3A1
:10149000C221515CC8407047740000200010024017
:1014A000D22C000812A185B00FC98DE80F0014A03E
:1014B000144A006804905168134801F00C03042B8F
:1014C00010D0082B0ED1C1F38343C9031DF80300CC
:1014D0000AD5516804AAC1F34041515C0A4A5043FD
:1014E000B0FBF1F005B0704708494843FAE7000047
:1014F00002030405060708090A0B0C0D0E0F101055
:10150000010200000010024000127A0000093D00B4
:101510002DE9F84F040070D02078C04DC00749D0A5
:101520006868C0F38100012807D06868C0F38100B3
:10153000022809D16868C00306D52868800339D518
:1015400060680028E7D035E06068B0F5803F0BD0D8
:1015500010B1B0F5A02F11D0286820F48030286099
:10156000286820F4802002E0286840F48030286059
:10157000606890B1FFF742FE06460AE0286840F432
:1015800080202860F0E700BFFFF738FE801B64284A
:1015900073D828688003F7D50CE0FFF72FFE0646C6
:1015A00005E000BFFFF72AFE801B6428F0D82868FA
:1015B0008003F7D420789A4E80074FF001094FF04E
:1015C000000839D5686810F00C0F07D06868C0F3C0
:1015D0008100022809D16868C00306D42868800702
:1015E00014D52069012808D110E02069B0B1C6F8EF
:1015F0000090FFF703FE074605E00AE1FFF7FEFD56
:10160000C01B0228C4D828688007F7D528686169FC
:1016100020F0F80040EAC10028600DE0C6F8008024
:10162000FFF7ECFD074604E0FFF7E8FDC01B0228CA
:1016300023D828688007F7D4207800072CD579486C
:10164000A169D9B1C0F80090FFF7D8FD074604E0C2
:10165000FFF7D4FDC01B02280FD8686A8007F7D5B2
:1016600071484FF4FA510068B0FBF1F0009000BFF0
:101670000098411E0091FAD20EE080E0C0F8008090
:10168000FFF7BCFD074604E0FFF7B8FDC01B0228CA
:1016900075D8686A8007F7D42078400760D5E86974
:1016A0000027C00008D4E86940F08050E861E8698C
:1016B000012700F0805000905C480168C90513D4F0
:1016C0000168834641F480710160FFF797FD82460F
:1016D00006E000BFFFF792FDA0EB0A0064284ED899
:1016E000DBF80000C005F5D5E06801280AD008B194
:1016F000052813D0286A20F001002862286A20F00B
:10170000040002E0286A40F001002862E06841F22B
:10171000883B98B1FFF772FD82460BE0286A40F0E3
:1017200004002862EEE700BFFFF768FDA0EB0A01A6
:1017300059455AD8286A8007F6D50CE0FFF75EFDB8
:10174000824605E0FFF75AFDA0EB0A0159454CD847
:10175000286A8007F6D41FB1E86920F08050E8615C
:10176000E06988B36968C1F38101022944D0022885
:10177000C6F8608004D0FFF741FD044638E034E04D
:10178000FFF73CFD074604E0FFF738FDC01B0228C9
:101790002BD828688001F7D4206AB0F5803F05D1A6
:1017A0006868A16820F4003008436860D4E9080143
:1017B0000843696821F4741108436860C6F86090B2
:1017C000FFF71CFD044606E025E000BFFFF716FD0D
:1017D000001B022809D828688001F7D51BE000BF4C
:1017E000FFF70CFD001B022802D90320BDE8F88F8B
:1017F00028688001F4D40EE00128F7D06868226AD6
:1018000000F48031914204D1616A00F47010884282
:1018100001D00120EAE70020E8E7000000100240C4
:1018200000004242800442427400002000700040E8
:1018300010B5401EB0F1807F01D3012010BD4FF0E4
:10184000E02460610F21601700F0ECFB0020A06134
:1018500007202061002010BD70477047F8B502686E
:1018600004461068D168536910F00F0F4FF000055F
:1018700053D003F0010601F4907737435FD0C207DD
:1018800005D0CA0503D5226C42F00102226442074A
:1018900005D5DA0703D0226C42F0020222648207E7
:1018A00005D5DA0703D0226C42F004022264020755
:1018B00007D501F02002324303D0226C42F0080227
:1018C0002264226C002A34D0800604D5880602D512
:1018D000204600F089FA20684069216CC0F380102E
:1018E000090700D430B3204600F066FA2068416949
:1018F00049061BD5416921F040014161A06BA8B1A7
:1019000058494163A06BFFF72BFB002811D0A06B57
:10191000416B01B0BDE8F040084783060FD58B0648
:101920000DD52046BDE8F84000F05EBA2046FFF72E
:1019300094FFF8BD2046FFF790FF2564F8BD266BA5
:101940002023012E52D1C60650D5CE064ED51068A2
:1019500050680090506940062AD5A16B086840681D
:101960000004000CEAD0A68D8642E7D9E08588699C
:10197000202818D0D06820F48070D0602068416999
:1019800021F0010141612068416921F0400141617C
:1019900084F83E3025632068C16821F01001C160E1
:1019A000A06BFFF7B9FAA08DE18D401A81B219E062
:1019B000A08DE18D401A81B2E08D0028BED00029B3
:1019C000BCD0D06820F49070D0602068426922F0CA
:1019D0000102426184F83E3025632068C26822F02B
:1019E0001002C2602046FFF737FFF8BD05062BD571
:1019F0000D0629D594F83D002128F6D1A068B0F550
:101A0000805F01D12069B0B1206A411C2162216848
:101A100000784860E08C401E0004000CE084E4D1B3
:101A20002068C16821F08001C1602068C16841F070
:101A30004001C160F8BD206A0088C0F30800506012
:101A4000206A801C2062E5E74006F3D54806F1D500
:101A5000D168204621F04001D16084F83D3000F08B
:101A600016F9F8BDA91D000870B5040004D094F85B
:101A70003D00002510B106E0012070BD84F83C5007
:101A8000204600F023F8242084F83D002068C16837
:101A900021F40051C160204600F002FA206801697B
:101AA00021F4904101612068416921F02A014161DE
:101AB0002068C16841F40051C1602564202084F889
:101AC0003D0084F83E00002070BD000030B585B0B8
:101AD00000240094019402940394006818498842F9
:101AE0002CD11848816941F480418161816901F4F8
:101AF00080410491816941F0040181618069124D46
:101B000000F0040004904FF4007000900220019057
:101B10000320039069462846FFF76EFA2815CDE9A1
:101B20000004694628460294FFF766FA002211462F
:101B30002520FFF7CFFB2520FFF7BEFB05B030BD0A
:101B400000380140001002400008014090F83E308B
:101B5000202B0ED159B152B190F83C30012B08D056
:101B6000012380F83C300023036300F0F5B9012025
:101B70007047022070470000154930B4884224D1D4
:101B8000144841880A0416D402464C0412784FF0D7
:101B9000000304D50A2A0DD141F4004113E00D2AB7
:101BA0000FD0C1F30D040C4D491C89B22A55418058
:101BB000C72900D9438030BC012206490448FFF7F9
:101BC000C5BF41F480414180F5E730BC704700005B
:101BD0004801002000000020800000202DE9F8438B
:101BE000044690F83D001F4616460D4620284CD16D
:101BF000C5B1BEB194F83C00012846D0012084F85C
:101C00003C004FF00008C4F84080212084F83D00DB
:101C1000FFF7F4FAA6848146E684A068B0F5805FF9
:101C200003D004E00120BDE8F883206928B12E46E6
:101C30005FF0000584F83C800EE00026FAE7802182
:101C4000204600F0A4F9A0B9AEB116F8010B216846
:101C50004860E08C401EE084E08C4B464FF0000270
:101C600000970028EBD14FF04001204600F08FF99B
:101C700030B10320D7E735F8020BC0F30800E6E7E0
:101C8000202084F83D000020CDE70220CBE77047FC
:101C9000FEE7000070B586B0002418480094019457
:101CA00002940394816941F010018161816901F01E
:101CB00010010491816941F020018161816901F085
:101CC00020010491816941F00401816180690C4E19
:101CD00000F004004FF400550490002229463046DD
:101CE000FFF787FA01200095CDE901040220039057
:101CF00069463046FFF780F906B070BD001002401B
:101D0000001001400C4810B50A4901604FF4E13160
:101D10004160002181600C22C160C0E90412816130
:101D2000C161FFF7A1FE002803D0BDE81040FFF716
:101D3000F1B810BD0038014048010020FEE7FEE781
:101D400070477047FFF760BA30B58FB028216846FA
:101D5000FEF701FA14210AA8FEF7FDF90121080493
:101D6000CDE900100024029402250491CDE907502A
:101D70004FF4E01009906846FFF7CAFB08B172B64D
:101D8000FEE70F20CDE90A054FF48060CDE90C4055
:101D900002210AA80E94FFF7CFFA002801D072B6EC
:101DA000FEE70FB030BD704710B5406A0021C18515
:101DB000C184FFF752FD10BD0168CA6822F4907219
:101DC000CA6001684A6922F001024A61016B012977
:101DD00004D10168CA6822F01002CA60202180F88C
:101DE0003E1000210163704708B590F83E1022298B
:101DF00001D0022008BD82684FF480539A4201D17D
:101E0000016921B1816A9A421BD04AB10AE0026895
:101E1000816A5268C2F308020A80816A891C08E05C
:101E2000026972B10268526802F07F020A70816A28
:101E3000491C8162C18D491E0904090CC18503D06A
:101E400019E002685268F1E70168CA6822F02002CE
:101E5000CA600168CA6822F48072CA6001684A696F
:101E600022F001024A61202180F83E10016B012915
:101E700003D0FFF781FE002008BD00210163016847
:101E8000CA6822F01002CA6001680A68D20602D548
:101E90000A6849680091818DFFF7DEFCEBE70000DE
:101EA00070B5044600680169E26821F440511143AD
:101EB00001612169A0680843616908432168CA6813
:101EC00041F20C639A430243CA6020684169A269E7
:101ED00021F44071114341611E492068884202D1BA
:101EE000FFF7D0FA01E0FFF7BDFA00EBC00101EB0C
:101EF0000012606864218000B2FBF0F3B3FBF1F3E1
:101F00006FF018067343B2FBF0F5B2FBF0F605EB89
:101F10008305322303EB0515B5FBF1F5B6FBF1F6AE
:101F200005F0F00505EB0615B2FBF0F6B2FBF0F09C
:101F3000B0FBF1F06FF01802504306EB800003EBAA
:101F40000010B0FBF1F0216800F00F002844886019
:101F500070BD00000038014081628285C285002189
:101F60000164222280F83E2080F83C100168CA6893
:101F700042F48072CA6001684A6942F001024A6113
:101F80000068C16841F02001C160002070472DE960
:101F9000F041984617460E460446069D1DE0681C13
:101FA0001BD02DB1FFF72AF9A0EB0800A84214D9E5
:101FB0002068C16821F4D071C1602068416921F0B6
:101FC00001014161202084F83D0084F83E0000209A
:101FD00084F83C000320BDE8F0812068006836EA00
:101FE000000004D00020B842D9D00020F3E701203F
:101FF000F9E700000148FFF731BC0000480100206C
:10200000FEE700000FB4054B10B503A9044A02987F
:1020100000F0EAF810BC5DF814FB0000F12800089D
:102020007C0000200907090E002804DB00F1E020F5
:1020300080F80014704700F00F0000F1E02080F8F5
:10204000141D704702E008C8121F08C1002AFAD107
:1020500070477047002001E001C1121F002AFBD128
:10206000704700002DE9FF5F82B00021DDE90430F8
:10207000020DDDF840B0034318D044F61050A2F230
:10208000FF3242431514119801281FD0A5EB0B0015
:10209000401C5FEA000A4FF000064E4FDFF838910F
:1020A000B046504615D5CAF1000413E0119801243A
:1020B0004AA3012801D16FEA0B010298119AC0E9E5
:1020C0000031C0E9024206B0BDE8F09FCBF100004C
:1020D000DFE704460021404A491842EB0450CDE9AD
:1020E000001012E0E00707D032463B464046494622
:1020F000FEF7ACF88046894632463B461046194604
:10210000FEF7A4F806460F466410002CEAD1DDE97C
:102110000401DDE90023BAF1000F06DAFEF796F8B4
:1021200042464B46FEF792F805E0FEF74FFB42466B
:102130004B46FEF74BFB04460E460022284BFEF7AB
:10214000CDFB03D84FF0FF30014607E00022254BBE
:1021500020463146FEF793FAFEF7A7FB102409E06C
:10216000002C0ADB0A220023FEF74EF9039B3032D3
:102170001A55641E50EA0102F2D1641C039AC4F19C
:1021800011031444119A012A03D0012208430DD1EE
:102190000AE0084304D000204FF0110B119072E7C1
:1021A000A3EB0B056D1E0DE05B4504DD4FF0000257
:1021B00005F1010504E003DA4FF00002A5F1010585
:1021C000002AECD002981199C0E90231C0E900451B
:1021D00079E70000000014400000F03F30000000EC
:1021E0000000F0430000E03F2DE9FF4F95B09A4614
:1021F000884606460025EEE1252877D100242746AB
:10220000F94A0121039400E0044316F8013F203B02
:1022100001FA03F01042F7D130782A2811D06FF07C
:102220002F033078A0F13002092A16D8039A44F01F
:10223000020402EB820203EB42021044761C03907C
:10224000EFE758F8042B0392002A03DA504244F4D3
:102250000054039044F00204761C30782E2816D1E6
:1022600016F8010F44F004042A280DD06FF02F0255
:102270003078A0F13003092B09D807EB870302EB74
:102280004303C718761CF3E758F8047B761C3078B4
:102290006C280FD006DC4C2817D068280DD06A288F
:1022A00014D104E0742810D07A280FD10DE044F442
:1022B00000140AE044F4801401E044F440147278FD
:1022C000824202D104F58014761C761C3078662890
:1022D0000BD013DC582877D009DC002875D04528AE
:1022E000F6D04628F4D047281AD193E118E06328A5
:1022F00035D0642879D0652812D18BE1702873D04D
:1023000008DC6728F1D069286FD06E280DD06F28BF
:1023100006D1ACE073282CD0752874D0782853D01F
:102320005246179990476D1C54E1C4F3025002289D
:1023300009D003280DD0D8F8001004280DD00D6066
:1023400008F1040846E1D8F80010EA17C1E9005284
:10235000F6E7D8F800100D80F2E70D70F0E718F8F6
:10236000041B8DF8001000208DF80100EB460120C1
:1023700003E058F804BB4FF0FF3061074FF0000155
:1023800002D40DE009F101018946B9420FDA814515
:10239000F8DB1BF809100029F4D108E009F101016C
:1023A00089468142FADB1BF809100029F6D103980F
:1023B0005346A0EB090721463846179A00F080FAE9
:1023C000284400EB090507E044E008E10DE01BF8B4
:1023D000010B524617999047B9F10109F7D25346BC
:1023E00021463846179AF2E039E00A21C4F3025236
:1023F0004FF0000B0091022A06D058F8040BC117C9
:10240000032A09D00AE023E008F1070020F00702C0
:10241000F2E80201904605E000B2C117042A01D19A
:1024200040B2C117002906DA0A460021404261EB9A
:1024300002012D2202E0220504D52B228DF8042072
:10244000012203E0E20701D02022F7E7914657E09E
:102450000A2100E010214FF0000B00910BE0102149
:102460004FF0000B44F004040827009103E008201B
:102470004FF0000B0090C4F30252022A05D058F826
:10248000040B0021032A08D008E008F1070020F01F
:102490000702F2E80201904603E080B2042A00D16C
:1024A000C0B24FF0000922072AD53278702A07D02F
:1024B000DDF800C08CF0100C5CEA0B0C05D00EE0CF
:1024C00040228DF80420012208E050EA010306D0E2
:1024D00030238DF804308DF8052002229146009BB0
:1024E00083F0080353EA0B030AD150EA010201D139
:1024F000620705D530228DF804204FF001097F1EB8
:102500003278582A04D039A20C920CAA02920BE01D
:102510003BA2F9E75B46009AFDF776FF0C9B9B5CBC
:10252000029A521E0292137050EA0102F2D10298EE
:1025300004A9081A00F1200B600702D524F48034A6
:1025400000E001275F4502DDA7EB0B0000E0002063
:1025500000EB0B01009003984944401A0390E003FC
:1025600006D453462146179A039800F0A9F905446A
:10257000002706E001A85246C05D179990476D1CE0
:102580007F1C4F45F6DBE0030CD553462146179AD6
:10259000039800F095F9054404E03020524617995D
:1025A00090476D1C0099481E00900029F5DC08E05A
:1025B0000298029952460078491C02911799904757
:1025C0006D1CBBF10001ABF1010BF1DC5BE100F034
:1025D00065F90544761C307800287FF40DAE19B0FB
:1025E0002846BDE8F08F0000092801003031323361
:1025F000343536373839616263646566000000003F
:102600003031323334353637383941424344454628
:1026100000000000600700D4062708F1070020F042
:102620000700F0E80223804603F0004C5FEA0C004C
:1026300001D097A009E0200501D596A005E0E007AC
:1026400001D095A001E0AFF24C001390307823F058
:10265000004365280CD006DC452809D046281DD04B
:1026600047287FD13BE0662818D067287AD136E02A
:102670000021112F01DB112000E0781CCDE90001C1
:1026800004A90CA8FFF7EEFCDDE90D010C9A4FF050
:10269000000B07F10109109200914EE04FF000404D
:1026A0000097CDE9011004A90CA8FFF7DBFCDDE9D8
:1026B0000D020C9B0F994FF0000B91461093009266
:1026C00011B9791C00EB0109B7EB090003D4C0F183
:1026D000FF3B07F10109A9EB0700019042E0012F40
:1026E00000DA01270021112F01DD112000E038461A
:1026F000CDE9000104A90CA8FFF7B4FCDDE90D0148
:102700000C9A00914FF0000BB946109221070FD49C
:10271000009A4A4503DA914601E0A9F10109B9F1AD
:10272000010F05DD109AA9F10101515C3029F4D0A7
:10273000B84202DA10F1040F03DA0121CDE90110E9
:1027400010E0002803DC8344A9EB000102E0411CF7
:10275000494500DD8946A0EB0B00401C01904FF07D
:1027600000400290200705D40198484502DB4FF055
:10277000FF30019000208DF84B0002980DF14B07BF
:10278000B0F1004F25D002200C902B200D90029824
:1027900000280CDA404202902D200D9007E00A211B
:1027A0000298FDF71BFE3031029007F8011D0C99CD
:1027B000481E0C900029F2DC02980028EFD1791E07
:1027C0000D980870307800F0200040F0450007F8C0
:1027D000020D11A8C01BC01D02901398007800B113
:1027E000012000EB0901019801EBE071029801441E
:1027F0000398401A401E0390E00306D45346214636
:10280000179A039800F05CF805441398007818B103
:102810005246179990476D1CE00323D55346214635
:10282000179A039800F04CF805441BE0BBF1000F29
:1028300007DB0098584504DD1098179910F80B0035
:1028400001E0179930205246904701980BF1010B97
:10285000401E05F10105019004D12E205246179922
:1028600090476D1CB9F10001A9F10109DEDC05E01A
:1028700017F8010B5246179990476D1C0299481E94
:1028800002900029F4DC53462146179A03989EE6ED
:102890002D0000002B000000200000002DE9F04179
:1028A000044600251E461746880404D405E0394630
:1028B0002020B0476D1C641EF9D52846BDE8F08184
:1028C0002DE9F041044600251E469046C80301D577
:1028D000302700E02027880404D505E0414638462B
:1028E000B0476D1C641EF9D52846BDE8F081000094
:1028F00038B504468DF800004FF6FF730122694693
:102900000248FFF76BF9204638BD0000480100205F
:10291000FEF782FCFFF718FAFFF7BCF9FFF7F2F9B0
:102920000122A149A148FFF711F9A14E4FF400552A
:10293000002229463046FEF75CFCFEF799FA9A4CD5
:102940006088000415D59BA0FFF75CFB60884FF6FC
:10295000FF73C0F30D029A499448FFF73FF993487B
:1029600090F83D102029FBD196A0FFF74BFB0020EB
:10297000608029463046FEF734FC93A0FFF742FB07
:10298000F0210020FEF766F96420FEF78FFA082197
:102990000020FEF7EFF860606420FEF787FA082158
:1029A0001020FEF7E7F8A0606420FEF77FFA082108
:1029B0002020FEF7DFF8E0606420FEF777FA0821B8
:1029C0003020FEF7D7F820616420FEF76FFA082167
:1029D0004020FEF7CFF860616420FEF767FA082117
:1029E0005020FEF7C7F8A0616420FEF75FFA0821C7
:1029F0006020FEF7BFF8E0616420FEF757FA082177
:102A00007020FEF7B7F820626420FEF74FFA00222C
:102A100008211046FDF7AEFFC4E90A016420FEF765
:102A200045FA002208211020FDF7A4FFC4E90C019B
:102A30006420FEF73BFA002208212020FDF79AFFD0
:102A4000C4E90E016420FEF731FA0022082130208B
:102A5000FDF790FFC4E910016420FEF727FA002279
:102A600008214020FDF786FFC4E912016420FEF72B
:102A70001DFA002208215020FDF77CFFC4E9140153
:102A80006420FEF713FA002208216020FDF772FF90
:102A9000C4E916016420FEF709FA0022082170201B
:102AA000FDF768FFC4E9180149A06168FFF7AAFAB9
:102AB00044A0FFF7A7FA48A0A168FFF7A3FA41A036
:102AC000FFF7A0FA46A0E168FFF79CFA3DA0FFF7E8
:102AD00099FA45A02169FFF795FA3AA0FFF792FA13
:102AE00043A06169FFF78EFA36A0FFF78BFA42A088
:102AF000A169FFF787FA33A0FFF784FA40A0E169E4
:102B0000FFF780FA2FA0FFF77DFA3FA0216AFFF7B9
:102B100079FA2CA0FFF776FAD4E90A233CA0FFF754
:102B200071FA28A0FFF76EFAD4E90C233AA0FFF758
:102B300069FA24A0FFF766FAD4E90E2338A0FFF75C
:102B400061FA20A0FFF75EFAD4E9102336A0FFF760
:102B500059FA1CA0FFF756FAD4E9122334A0FFF764
:102B600051FA18A0FFF74EFAD4E9142332A0FFF768
:102B700049FA14A0FFF746FAD4E9162330A0FFF76C
:102B800041FA10A0FFF73EFAD4E918232EA0FFF770
:102B900039FA0CA0FFF736FA0AA0FFF733FA40F231
:102BA000DC50FEF783F9CBE600000020480100204E
:102BB0000010014047657420646174613A000000B0
:102BC000800000200D0A0000746573740D0A000077
:102BD00041494E303D25640041494E313D25640058
:102BE00041494E323D25640041494E333D25640044
:102BF00041494E343D25640041494E353D25640030
:102C000041494E363D25640041494E373D2564001B
:102C100056303D256600000056313D256600000017
:102C200056323D256600000056333D256600000003
:102C300056343D256600000056353D2566000000EF
:102C400056363D256600000056373D2566000000DB
:102C500070B50546FDF798FC044601462846FDF789
:102C60008DFC15F0004F4FF07F410ED0B0F13F4F7B
:102C700028BFB1EB400F0ED2B0F17C5F1DDDB1EB90
:102C8000400F1AD313E0044617E0B0F13F4F08D9C4
:102C9000B1EB400F05D34FF07E512046FDF76EFC9F
:102CA000F1E7B0F17C5F08DBB1EB400F05D34FF0EB
:102CB0007E512046FDF710FCE5E7284664F31E0030
:102CC00070BD0000000000000000010203040607C0
:102CD000080900000000010203040000FC2C0008A9
:102CE0000000002080000000442000087C2D000827
:102CF00080000020100500005420000800000000A3
:102D000000000000000000000000000000000000C3
:102D100000000000000000000000000000000000B3
:102D200000000000000000000000000000000000A3
:102D30000000000000000000000000000000000093
:102D40000000000000000000000000000000000083
:102D50000000000000000000000000000000000073
:102D60000000000001000000100000000000000052
:0C2D70000024F40000000000000000003F
:04000005080000ED02
:00000001FF
